{
  "contractName": "Voting",
  "abi": [
    {
      "anonymous": false,
      "inputs": [
        {
          "indexed": false,
          "internalType": "address",
          "name": "senderAddress",
          "type": "address"
        }
      ],
      "name": "LogDepositReceived",
      "type": "event"
    },
    {
      "anonymous": false,
      "inputs": [
        {
          "indexed": true,
          "internalType": "address",
          "name": "previousOwner",
          "type": "address"
        },
        {
          "indexed": true,
          "internalType": "address",
          "name": "newOwner",
          "type": "address"
        }
      ],
      "name": "OwnershipTransferred",
      "type": "event"
    },
    {
      "anonymous": false,
      "inputs": [
        {
          "indexed": false,
          "internalType": "uint256",
          "name": "proposalId",
          "type": "uint256"
        }
      ],
      "name": "ProposalRegistered",
      "type": "event"
    },
    {
      "anonymous": false,
      "inputs": [
        {
          "indexed": false,
          "internalType": "address",
          "name": "voter",
          "type": "address"
        },
        {
          "indexed": false,
          "internalType": "uint256",
          "name": "proposalId",
          "type": "uint256"
        }
      ],
      "name": "Voted",
      "type": "event"
    },
    {
      "anonymous": false,
      "inputs": [
        {
          "indexed": false,
          "internalType": "address",
          "name": "voterAddress",
          "type": "address"
        }
      ],
      "name": "VoterRegistered",
      "type": "event"
    },
    {
      "anonymous": false,
      "inputs": [
        {
          "indexed": false,
          "internalType": "enum Voting.WorkflowStatus",
          "name": "previousStatus",
          "type": "uint8"
        },
        {
          "indexed": false,
          "internalType": "enum Voting.WorkflowStatus",
          "name": "newStatus",
          "type": "uint8"
        }
      ],
      "name": "WorkflowStatusChange",
      "type": "event"
    },
    {
      "inputs": [],
      "name": "owner",
      "outputs": [
        {
          "internalType": "address",
          "name": "",
          "type": "address"
        }
      ],
      "stateMutability": "view",
      "type": "function",
      "constant": true
    },
    {
      "inputs": [],
      "name": "renounceOwnership",
      "outputs": [],
      "stateMutability": "nonpayable",
      "type": "function"
    },
    {
      "inputs": [
        {
          "internalType": "address",
          "name": "newOwner",
          "type": "address"
        }
      ],
      "name": "transferOwnership",
      "outputs": [],
      "stateMutability": "nonpayable",
      "type": "function"
    },
    {
      "inputs": [],
      "name": "winningProposalID",
      "outputs": [
        {
          "internalType": "uint256",
          "name": "",
          "type": "uint256"
        }
      ],
      "stateMutability": "view",
      "type": "function",
      "constant": true
    },
    {
      "inputs": [
        {
          "internalType": "uint256",
          "name": "",
          "type": "uint256"
        }
      ],
      "name": "winningProposals",
      "outputs": [
        {
          "internalType": "string",
          "name": "description",
          "type": "string"
        },
        {
          "internalType": "uint256",
          "name": "voteCount",
          "type": "uint256"
        }
      ],
      "stateMutability": "view",
      "type": "function",
      "constant": true
    },
    {
      "inputs": [
        {
          "internalType": "uint256",
          "name": "",
          "type": "uint256"
        }
      ],
      "name": "winningProposalsID",
      "outputs": [
        {
          "internalType": "uint256",
          "name": "",
          "type": "uint256"
        }
      ],
      "stateMutability": "view",
      "type": "function",
      "constant": true
    },
    {
      "inputs": [],
      "name": "workflowStatus",
      "outputs": [
        {
          "internalType": "enum Voting.WorkflowStatus",
          "name": "",
          "type": "uint8"
        }
      ],
      "stateMutability": "view",
      "type": "function",
      "constant": true
    },
    {
      "stateMutability": "payable",
      "type": "receive",
      "payable": true
    },
    {
      "inputs": [
        {
          "internalType": "address",
          "name": "_addr",
          "type": "address"
        }
      ],
      "name": "getVoter",
      "outputs": [
        {
          "components": [
            {
              "internalType": "bool",
              "name": "isRegistered",
              "type": "bool"
            },
            {
              "internalType": "bool",
              "name": "hasVoted",
              "type": "bool"
            },
            {
              "internalType": "uint256",
              "name": "votedProposalId",
              "type": "uint256"
            }
          ],
          "internalType": "struct Voting.Voter",
          "name": "",
          "type": "tuple"
        }
      ],
      "stateMutability": "view",
      "type": "function",
      "constant": true
    },
    {
      "inputs": [
        {
          "internalType": "uint256",
          "name": "_id",
          "type": "uint256"
        }
      ],
      "name": "getOneProposal",
      "outputs": [
        {
          "components": [
            {
              "internalType": "string",
              "name": "description",
              "type": "string"
            },
            {
              "internalType": "uint256",
              "name": "voteCount",
              "type": "uint256"
            }
          ],
          "internalType": "struct Voting.Proposal",
          "name": "",
          "type": "tuple"
        }
      ],
      "stateMutability": "view",
      "type": "function",
      "constant": true
    },
    {
      "inputs": [
        {
          "internalType": "address",
          "name": "_addr",
          "type": "address"
        }
      ],
      "name": "addVoter",
      "outputs": [],
      "stateMutability": "nonpayable",
      "type": "function"
    },
    {
      "inputs": [
        {
          "internalType": "address",
          "name": "_addr",
          "type": "address"
        }
      ],
      "name": "deleteVoter",
      "outputs": [],
      "stateMutability": "nonpayable",
      "type": "function"
    },
    {
      "inputs": [
        {
          "internalType": "string",
          "name": "_desc",
          "type": "string"
        }
      ],
      "name": "addProposal",
      "outputs": [],
      "stateMutability": "nonpayable",
      "type": "function"
    },
    {
      "inputs": [
        {
          "internalType": "uint256",
          "name": "_id",
          "type": "uint256"
        }
      ],
      "name": "setVote",
      "outputs": [],
      "stateMutability": "nonpayable",
      "type": "function"
    },
    {
      "inputs": [],
      "name": "startProposalsRegistering",
      "outputs": [],
      "stateMutability": "nonpayable",
      "type": "function"
    },
    {
      "inputs": [],
      "name": "endProposalsRegistering",
      "outputs": [],
      "stateMutability": "nonpayable",
      "type": "function"
    },
    {
      "inputs": [],
      "name": "startVotingSession",
      "outputs": [],
      "stateMutability": "nonpayable",
      "type": "function"
    },
    {
      "inputs": [],
      "name": "endVotingSession",
      "outputs": [],
      "stateMutability": "nonpayable",
      "type": "function"
    },
    {
      "inputs": [],
      "name": "tallyVotesDraw",
      "outputs": [],
      "stateMutability": "nonpayable",
      "type": "function"
    },
    {
      "inputs": [],
      "name": "tallyVotes",
      "outputs": [],
      "stateMutability": "nonpayable",
      "type": "function"
    }
  ],
  "bytecode": "0x60806040523480156200001157600080fd5b5062000032620000266200003860201b60201c565b6200004060201b60201c565b62000104565b600033905090565b60008060009054906101000a900473ffffffffffffffffffffffffffffffffffffffff169050816000806101000a81548173ffffffffffffffffffffffffffffffffffffffff021916908373ffffffffffffffffffffffffffffffffffffffff1602179055508173ffffffffffffffffffffffffffffffffffffffff168173ffffffffffffffffffffffffffffffffffffffff167f8be0079c531659141344cd1fd0a4f28419497f9722a3daafe3b4186f6b6457e060405160405180910390a35050565b612f8080620001146000396000f3fe6080604052600436106101185760003560e01c8063a2788cce116100a0578063cf03946e11610064578063cf03946e1461035c578063d4f50f9814610399578063ee74c678146103d6578063f2fde38b146103ed578063f4ab9adf1461041657610156565b8063a2788cce146102af578063a7bfab16146102ec578063bdc0143114610303578063c7038a4e1461032e578063c88af42f1461034557610156565b8063715018a6116100e7578063715018a6146101db578063806d7bd7146101f257806388e1c739146102305780638da5cb5b14610259578063a1edffa21461028457610156565b8063230796ae1461015b5780632fdae3c514610184578063378a2178146101ad5780633beee92e146101c457610156565b36610156577f15382559391789f1865e10e9c8b51327a9cb0381eae89973ada229e7a78c08f33360405161014c919061206e565b60405180910390a1005b600080fd5b34801561016757600080fd5b50610182600480360381019061017d91906120d3565b61043f565b005b34801561019057600080fd5b506101ab60048036038101906101a69190612246565b61073a565b005b3480156101b957600080fd5b506101c26109c5565b005b3480156101d057600080fd5b506101d9610ba6565b005b3480156101e757600080fd5b506101f0610eff565b005b3480156101fe57600080fd5b50610219600480360381019061021491906120d3565b610f87565b604051610227929190612326565b60405180910390f35b34801561023c57600080fd5b5061025760048036038101906102529190612382565b611043565b005b34801561026557600080fd5b5061026e611260565b60405161027b919061206e565b60405180910390f35b34801561029057600080fd5b50610299611289565b6040516102a69190612426565b60405180910390f35b3480156102bb57600080fd5b506102d660048036038101906102d191906120d3565b61129c565b6040516102e391906124d7565b60405180910390f35b3480156102f857600080fd5b50610301611403565b005b34801561030f57600080fd5b5061031861155c565b60405161032591906124f9565b60405180910390f35b34801561033a57600080fd5b50610343611562565b005b34801561035157600080fd5b5061035a6116bc565b005b34801561036857600080fd5b50610383600480360381019061037e91906120d3565b611816565b60405161039091906124f9565b60405180910390f35b3480156103a557600080fd5b506103c060048036038101906103bb9190612382565b61183a565b6040516103cd9190612571565b60405180910390f35b3480156103e257600080fd5b506103eb611962565b005b3480156103f957600080fd5b50610414600480360381019061040f9190612382565b611abc565b005b34801561042257600080fd5b5061043d60048036038101906104389190612382565b611bb3565b005b600660003373ffffffffffffffffffffffffffffffffffffffff1673ffffffffffffffffffffffffffffffffffffffff16815260200190815260200160002060000160009054906101000a900460ff166104ce576040517f08c379a00000000000000000000000000000000000000000000000000000000081526004016104c5906125d8565b60405180910390fd5b600360058111156104e2576104e16123af565b5b600460009054906101000a900460ff166005811115610504576105036123af565b5b14610544576040517f08c379a000000000000000000000000000000000000000000000000000000000815260040161053b9061266a565b60405180910390fd5b60011515600660003373ffffffffffffffffffffffffffffffffffffffff1673ffffffffffffffffffffffffffffffffffffffff16815260200190815260200160002060000160019054906101000a900460ff161515036105da576040517f08c379a00000000000000000000000000000000000000000000000000000000081526004016105d1906126d6565b60405180910390fd5b6005805490508110610621576040517f08c379a000000000000000000000000000000000000000000000000000000000815260040161061890612742565b60405180910390fd5b80600660003373ffffffffffffffffffffffffffffffffffffffff1673ffffffffffffffffffffffffffffffffffffffff168152602001908152602001600020600101819055506001600660003373ffffffffffffffffffffffffffffffffffffffff1673ffffffffffffffffffffffffffffffffffffffff16815260200190815260200160002060000160016101000a81548160ff021916908315150217905550600581815481106106d7576106d6612762565b5b906000526020600020906002020160010160008154809291906106f9906127c0565b91905055507f4d99b957a2bc29a30ebd96a7be8e68fe50a3c701db28a91436490b7d53870ca4338260405161072f929190612808565b60405180910390a150565b600660003373ffffffffffffffffffffffffffffffffffffffff1673ffffffffffffffffffffffffffffffffffffffff16815260200190815260200160002060000160009054906101000a900460ff166107c9576040517f08c379a00000000000000000000000000000000000000000000000000000000081526004016107c0906125d8565b60405180910390fd5b600160058111156107dd576107dc6123af565b5b600460009054906101000a900460ff1660058111156107ff576107fe6123af565b5b1461083f576040517f08c379a00000000000000000000000000000000000000000000000000000000081526004016108369061287d565b60405180910390fd5b60405160200161084e906128c3565b604051602081830303815290604052805190602001208160405160200161087591906128e3565b60405160208183030381529060405280519060200120036108cb576040517f08c379a00000000000000000000000000000000000000000000000000000000081526004016108c290612951565b60405180910390fd5b606460058054905010610913576040517f08c379a000000000000000000000000000000000000000000000000000000000815260040161090a906129bd565b60405180910390fd5b61091b611e9c565b8181600001819052506005819080600181540180825580915050600190039060005260206000209060020201600090919091909150600082015181600001908051906020019061096c929190611eb6565b506020820151816001015550507f92e393e9b54e2f801d3ea4beb0c5e71a21cc34a5d34b77d0fb8a3aa1650dc18f60016005805490506109ac91906129dd565b6040516109b991906124f9565b60405180910390a15050565b6109cd611dd0565b73ffffffffffffffffffffffffffffffffffffffff166109eb611260565b73ffffffffffffffffffffffffffffffffffffffff1614610a41576040517f08c379a0000000000000000000000000000000000000000000000000000000008152600401610a3890612a5d565b60405180910390fd5b60046005811115610a5557610a546123af565b5b600460009054906101000a900460ff166005811115610a7757610a766123af565b5b14610ab7576040517f08c379a0000000000000000000000000000000000000000000000000000000008152600401610aae90612aef565b60405180910390fd5b600080600090505b600580549050811015610b355760058281548110610ae057610adf612762565b5b90600052602060002090600202016001015460058281548110610b0657610b05612762565b5b9060005260206000209060020201600101541115610b22578091505b8080610b2d906127c0565b915050610abf565b50806001819055506005600460006101000a81548160ff02191690836005811115610b6357610b626123af565b5b02179055507f0a97a4ee45751e2abf3e4fc8946939630b11b371ea8ae39ccdc3056e98f5cc3f60046005604051610b9b929190612b0f565b60405180910390a150565b610bae611dd0565b73ffffffffffffffffffffffffffffffffffffffff16610bcc611260565b73ffffffffffffffffffffffffffffffffffffffff1614610c22576040517f08c379a0000000000000000000000000000000000000000000000000000000008152600401610c1990612a5d565b60405180910390fd5b60046005811115610c3657610c356123af565b5b600460009054906101000a900460ff166005811115610c5857610c576123af565b5b14610c98576040517f08c379a0000000000000000000000000000000000000000000000000000000008152600401610c8f90612aef565b60405180910390fd5b6000610ca2611f3c565b600080600090505b600580549050811015610da4578360058281548110610ccc57610ccb612762565b5b90600052602060002090600202016001015403610d0f5780838360058110610cf757610cf6612762565b5b6020020181815250508180610d0b906127c0565b9250505b8360058281548110610d2457610d23612762565b5b9060005260206000209060020201600101541115610d9157610d44611f3c565b92508083600060058110610d5b57610d5a612762565b5b60200201818152505060058181548110610d7857610d77612762565b5b9060005260206000209060020201600101549350600191505b8080610d9c906127c0565b915050610caa565b5060005b81811015610e93576002838260058110610dc557610dc4612762565b5b6020020151908060018154018082558091505060019003906000526020600020016000909190919091505560036005848360058110610e0757610e06612762565b5b602002015181548110610e1d57610e1c612762565b5b906000526020600020906002020190806001815401808255809150506001900390600052602060002090600202016000909190919091506000820181600001908054610e6890612b67565b610e73929190611f5e565b506001820154816001015550508080610e8b906127c0565b915050610da8565b506005600460006101000a81548160ff02191690836005811115610eba57610eb96123af565b5b02179055507f0a97a4ee45751e2abf3e4fc8946939630b11b371ea8ae39ccdc3056e98f5cc3f60046005604051610ef2929190612b0f565b60405180910390a1505050565b610f07611dd0565b73ffffffffffffffffffffffffffffffffffffffff16610f25611260565b73ffffffffffffffffffffffffffffffffffffffff1614610f7b576040517f08c379a0000000000000000000000000000000000000000000000000000000008152600401610f7290612a5d565b60405180910390fd5b610f856000611dd8565b565b60038181548110610f9757600080fd5b9060005260206000209060020201600091509050806000018054610fba90612b67565b80601f0160208091040260200160405190810160405280929190818152602001828054610fe690612b67565b80156110335780601f1061100857610100808354040283529160200191611033565b820191906000526020600020905b81548152906001019060200180831161101657829003601f168201915b5050505050908060010154905082565b61104b611dd0565b73ffffffffffffffffffffffffffffffffffffffff16611069611260565b73ffffffffffffffffffffffffffffffffffffffff16146110bf576040517f08c379a00000000000000000000000000000000000000000000000000000000081526004016110b690612a5d565b60405180910390fd5b600060058111156110d3576110d26123af565b5b600460009054906101000a900460ff1660058111156110f5576110f46123af565b5b14611135576040517f08c379a000000000000000000000000000000000000000000000000000000000815260040161112c90612c0a565b60405180910390fd5b60011515600660008373ffffffffffffffffffffffffffffffffffffffff1673ffffffffffffffffffffffffffffffffffffffff16815260200190815260200160002060000160009054906101000a900460ff161515146111cb576040517f08c379a00000000000000000000000000000000000000000000000000000000081526004016111c290612c76565b60405180910390fd5b6000600660008373ffffffffffffffffffffffffffffffffffffffff1673ffffffffffffffffffffffffffffffffffffffff16815260200190815260200160002060000160006101000a81548160ff0219169083151502179055507fb6be2187d059cc2a55fe29e0e503b566e1e0f8c8780096e185429350acffd3dd81604051611255919061206e565b60405180910390a150565b60008060009054906101000a900473ffffffffffffffffffffffffffffffffffffffff16905090565b600460009054906101000a900460ff1681565b6112a4611e9c565b600660003373ffffffffffffffffffffffffffffffffffffffff1673ffffffffffffffffffffffffffffffffffffffff16815260200190815260200160002060000160009054906101000a900460ff16611333576040517f08c379a000000000000000000000000000000000000000000000000000000000815260040161132a906125d8565b60405180910390fd5b6005828154811061134757611346612762565b5b906000526020600020906002020160405180604001604052908160008201805461137090612b67565b80601f016020809104026020016040519081016040528092919081815260200182805461139c90612b67565b80156113e95780601f106113be576101008083540402835291602001916113e9565b820191906000526020600020905b8154815290600101906020018083116113cc57829003601f168201915b505050505081526020016001820154815250509050919050565b61140b611dd0565b73ffffffffffffffffffffffffffffffffffffffff16611429611260565b73ffffffffffffffffffffffffffffffffffffffff161461147f576040517f08c379a000000000000000000000000000000000000000000000000000000000815260040161147690612a5d565b60405180910390fd5b60036005811115611493576114926123af565b5b600460009054906101000a900460ff1660058111156114b5576114b46123af565b5b146114f5576040517f08c379a00000000000000000000000000000000000000000000000000000000081526004016114ec9061266a565b60405180910390fd5b60048060006101000a81548160ff0219169083600581111561151a576115196123af565b5b02179055507f0a97a4ee45751e2abf3e4fc8946939630b11b371ea8ae39ccdc3056e98f5cc3f60036004604051611552929190612b0f565b60405180910390a1565b60015481565b61156a611dd0565b73ffffffffffffffffffffffffffffffffffffffff16611588611260565b73ffffffffffffffffffffffffffffffffffffffff16146115de576040517f08c379a00000000000000000000000000000000000000000000000000000000081526004016115d590612a5d565b60405180910390fd5b600060058111156115f2576115f16123af565b5b600460009054906101000a900460ff166005811115611614576116136123af565b5b14611654576040517f08c379a000000000000000000000000000000000000000000000000000000000815260040161164b90612d08565b60405180910390fd5b6001600460006101000a81548160ff0219169083600581111561167a576116796123af565b5b02179055507f0a97a4ee45751e2abf3e4fc8946939630b11b371ea8ae39ccdc3056e98f5cc3f600060016040516116b2929190612b0f565b60405180910390a1565b6116c4611dd0565b73ffffffffffffffffffffffffffffffffffffffff166116e2611260565b73ffffffffffffffffffffffffffffffffffffffff1614611738576040517f08c379a000000000000000000000000000000000000000000000000000000000815260040161172f90612a5d565b60405180910390fd5b6001600581111561174c5761174b6123af565b5b600460009054906101000a900460ff16600581111561176e5761176d6123af565b5b146117ae576040517f08c379a00000000000000000000000000000000000000000000000000000000081526004016117a590612d9a565b60405180910390fd5b6002600460006101000a81548160ff021916908360058111156117d4576117d36123af565b5b02179055507f0a97a4ee45751e2abf3e4fc8946939630b11b371ea8ae39ccdc3056e98f5cc3f6001600260405161180c929190612b0f565b60405180910390a1565b6002818154811061182657600080fd5b906000526020600020016000915090505481565b611842611feb565b600660003373ffffffffffffffffffffffffffffffffffffffff1673ffffffffffffffffffffffffffffffffffffffff16815260200190815260200160002060000160009054906101000a900460ff166118d1576040517f08c379a00000000000000000000000000000000000000000000000000000000081526004016118c8906125d8565b60405180910390fd5b600660008373ffffffffffffffffffffffffffffffffffffffff1673ffffffffffffffffffffffffffffffffffffffff1681526020019081526020016000206040518060600160405290816000820160009054906101000a900460ff161515151581526020016000820160019054906101000a900460ff161515151581526020016001820154815250509050919050565b61196a611dd0565b73ffffffffffffffffffffffffffffffffffffffff16611988611260565b73ffffffffffffffffffffffffffffffffffffffff16146119de576040517f08c379a00000000000000000000000000000000000000000000000000000000081526004016119d590612a5d565b60405180910390fd5b600260058111156119f2576119f16123af565b5b600460009054906101000a900460ff166005811115611a1457611a136123af565b5b14611a54576040517f08c379a0000000000000000000000000000000000000000000000000000000008152600401611a4b90612e2c565b60405180910390fd5b6003600460006101000a81548160ff02191690836005811115611a7a57611a796123af565b5b02179055507f0a97a4ee45751e2abf3e4fc8946939630b11b371ea8ae39ccdc3056e98f5cc3f60026003604051611ab2929190612b0f565b60405180910390a1565b611ac4611dd0565b73ffffffffffffffffffffffffffffffffffffffff16611ae2611260565b73ffffffffffffffffffffffffffffffffffffffff1614611b38576040517f08c379a0000000000000000000000000000000000000000000000000000000008152600401611b2f90612a5d565b60405180910390fd5b600073ffffffffffffffffffffffffffffffffffffffff168173ffffffffffffffffffffffffffffffffffffffff1603611ba7576040517f08c379a0000000000000000000000000000000000000000000000000000000008152600401611b9e90612ebe565b60405180910390fd5b611bb081611dd8565b50565b611bbb611dd0565b73ffffffffffffffffffffffffffffffffffffffff16611bd9611260565b73ffffffffffffffffffffffffffffffffffffffff1614611c2f576040517f08c379a0000000000000000000000000000000000000000000000000000000008152600401611c2690612a5d565b60405180910390fd5b60006005811115611c4357611c426123af565b5b600460009054906101000a900460ff166005811115611c6557611c646123af565b5b14611ca5576040517f08c379a0000000000000000000000000000000000000000000000000000000008152600401611c9c90612c0a565b60405180910390fd5b60011515600660008373ffffffffffffffffffffffffffffffffffffffff1673ffffffffffffffffffffffffffffffffffffffff16815260200190815260200160002060000160009054906101000a900460ff16151503611d3b576040517f08c379a0000000000000000000000000000000000000000000000000000000008152600401611d3290612f2a565b60405180910390fd5b6001600660008373ffffffffffffffffffffffffffffffffffffffff1673ffffffffffffffffffffffffffffffffffffffff16815260200190815260200160002060000160006101000a81548160ff0219169083151502179055507fb6be2187d059cc2a55fe29e0e503b566e1e0f8c8780096e185429350acffd3dd81604051611dc5919061206e565b60405180910390a150565b600033905090565b60008060009054906101000a900473ffffffffffffffffffffffffffffffffffffffff169050816000806101000a81548173ffffffffffffffffffffffffffffffffffffffff021916908373ffffffffffffffffffffffffffffffffffffffff1602179055508173ffffffffffffffffffffffffffffffffffffffff168173ffffffffffffffffffffffffffffffffffffffff167f8be0079c531659141344cd1fd0a4f28419497f9722a3daafe3b4186f6b6457e060405160405180910390a35050565b604051806040016040528060608152602001600081525090565b828054611ec290612b67565b90600052602060002090601f016020900481019282611ee45760008555611f2b565b82601f10611efd57805160ff1916838001178555611f2b565b82800160010185558215611f2b579182015b82811115611f2a578251825591602001919060010190611f0f565b5b509050611f389190612010565b5090565b6040518060a00160405280600590602082028036833780820191505090505090565b828054611f6a90612b67565b90600052602060002090601f016020900481019282611f8c5760008555611fda565b82601f10611f9d5780548555611fda565b82800160010185558215611fda57600052602060002091601f016020900482015b82811115611fd9578254825591600101919060010190611fbe565b5b509050611fe79190612010565b5090565b6040518060600160405280600015158152602001600015158152602001600081525090565b5b80821115612029576000816000905550600101612011565b5090565b600073ffffffffffffffffffffffffffffffffffffffff82169050919050565b60006120588261202d565b9050919050565b6120688161204d565b82525050565b6000602082019050612083600083018461205f565b92915050565b6000604051905090565b600080fd5b600080fd5b6000819050919050565b6120b08161209d565b81146120bb57600080fd5b50565b6000813590506120cd816120a7565b92915050565b6000602082840312156120e9576120e8612093565b5b60006120f7848285016120be565b91505092915050565b600080fd5b600080fd5b6000601f19601f8301169050919050565b7f4e487b7100000000000000000000000000000000000000000000000000000000600052604160045260246000fd5b6121538261210a565b810181811067ffffffffffffffff821117156121725761217161211b565b5b80604052505050565b6000612185612089565b9050612191828261214a565b919050565b600067ffffffffffffffff8211156121b1576121b061211b565b5b6121ba8261210a565b9050602081019050919050565b82818337600083830152505050565b60006121e96121e484612196565b61217b565b90508281526020810184848401111561220557612204612105565b5b6122108482856121c7565b509392505050565b600082601f83011261222d5761222c612100565b5b813561223d8482602086016121d6565b91505092915050565b60006020828403121561225c5761225b612093565b5b600082013567ffffffffffffffff81111561227a57612279612098565b5b61228684828501612218565b91505092915050565b600081519050919050565b600082825260208201905092915050565b60005b838110156122c95780820151818401526020810190506122ae565b838111156122d8576000848401525b50505050565b60006122e98261228f565b6122f3818561229a565b93506123038185602086016122ab565b61230c8161210a565b840191505092915050565b6123208161209d565b82525050565b6000604082019050818103600083015261234081856122de565b905061234f6020830184612317565b9392505050565b61235f8161204d565b811461236a57600080fd5b50565b60008135905061237c81612356565b92915050565b60006020828403121561239857612397612093565b5b60006123a68482850161236d565b91505092915050565b7f4e487b7100000000000000000000000000000000000000000000000000000000600052602160045260246000fd5b600681106123ef576123ee6123af565b5b50565b6000819050612400826123de565b919050565b6000612410826123f2565b9050919050565b61242081612405565b82525050565b600060208201905061243b6000830184612417565b92915050565b600082825260208201905092915050565b600061245d8261228f565b6124678185612441565b93506124778185602086016122ab565b6124808161210a565b840191505092915050565b6124948161209d565b82525050565b600060408301600083015184820360008601526124b78282612452565b91505060208301516124cc602086018261248b565b508091505092915050565b600060208201905081810360008301526124f1818461249a565b905092915050565b600060208201905061250e6000830184612317565b92915050565b60008115159050919050565b61252981612514565b82525050565b6060820160008201516125456000850182612520565b5060208201516125586020850182612520565b50604082015161256b604085018261248b565b50505050565b6000606082019050612586600083018461252f565b92915050565b7f596f75277265206e6f74206120766f7465720000000000000000000000000000600082015250565b60006125c260128361229a565b91506125cd8261258c565b602082019050919050565b600060208201905081810360008301526125f1816125b5565b9050919050565b7f566f74696e672073657373696f6e20686176656e74207374617274656420796560008201527f7400000000000000000000000000000000000000000000000000000000000000602082015250565b600061265460218361229a565b915061265f826125f8565b604082019050919050565b6000602082019050818103600083015261268381612647565b9050919050565b7f596f75206861766520616c726561647920766f74656400000000000000000000600082015250565b60006126c060168361229a565b91506126cb8261268a565b602082019050919050565b600060208201905081810360008301526126ef816126b3565b9050919050565b7f50726f706f73616c206e6f7420666f756e640000000000000000000000000000600082015250565b600061272c60128361229a565b9150612737826126f6565b602082019050919050565b6000602082019050818103600083015261275b8161271f565b9050919050565b7f4e487b7100000000000000000000000000000000000000000000000000000000600052603260045260246000fd5b7f4e487b7100000000000000000000000000000000000000000000000000000000600052601160045260246000fd5b60006127cb8261209d565b91507fffffffffffffffffffffffffffffffffffffffffffffffffffffffffffffffff82036127fd576127fc612791565b5b600182019050919050565b600060408201905061281d600083018561205f565b61282a6020830184612317565b9392505050565b7f50726f706f73616c7320617265206e6f7420616c6c6f77656420796574000000600082015250565b6000612867601d8361229a565b915061287282612831565b602082019050919050565b600060208201905081810360008301526128968161285a565b9050919050565b50565b60006128ad60008361229a565b91506128b88261289d565b600082019050919050565b600060208201905081810360008301526128dc816128a0565b9050919050565b600060208201905081810360008301526128fd81846122de565b905092915050565b7f456d7074792070726f706f73616c206e6f7420616c6c6f776564000000000000600082015250565b600061293b601a8361229a565b915061294682612905565b602082019050919050565b6000602082019050818103600083015261296a8161292e565b9050919050565b7f546f6f206d616e792070726f706f736974696f6e7320616c7265616479000000600082015250565b60006129a7601d8361229a565b91506129b282612971565b602082019050919050565b600060208201905081810360008301526129d68161299a565b9050919050565b60006129e88261209d565b91506129f38361209d565b925082821015612a0657612a05612791565b5b828203905092915050565b7f4f776e61626c653a2063616c6c6572206973206e6f7420746865206f776e6572600082015250565b6000612a4760208361229a565b9150612a5282612a11565b602082019050919050565b60006020820190508181036000830152612a7681612a3a565b9050919050565b7f43757272656e7420737461747573206973206e6f7420766f74696e672073657360008201527f73696f6e20656e64656400000000000000000000000000000000000000000000602082015250565b6000612ad9602a8361229a565b9150612ae482612a7d565b604082019050919050565b60006020820190508181036000830152612b0881612acc565b9050919050565b6000604082019050612b246000830185612417565b612b316020830184612417565b9392505050565b7f4e487b7100000000000000000000000000000000000000000000000000000000600052602260045260246000fd5b60006002820490506001821680612b7f57607f821691505b602082108103612b9257612b91612b38565b5b50919050565b7f566f7465727320726567697374726174696f6e206973206e6f74206f70656e2060008201527f7965740000000000000000000000000000000000000000000000000000000000602082015250565b6000612bf460238361229a565b9150612bff82612b98565b604082019050919050565b60006020820190508181036000830152612c2381612be7565b9050919050565b7f4e6f7420726567697374657265642e0000000000000000000000000000000000600082015250565b6000612c60600f8361229a565b9150612c6b82612c2a565b602082019050919050565b60006020820190508181036000830152612c8f81612c53565b9050919050565b7f5265676973746572696e672070726f706f73616c732063616e7420626520737460008201527f6172746564206e6f770000000000000000000000000000000000000000000000602082015250565b6000612cf260298361229a565b9150612cfd82612c96565b604082019050919050565b60006020820190508181036000830152612d2181612ce5565b9050919050565b7f5265676973746572696e672070726f706f73616c7320686176656e742073746160008201527f7274656420796574000000000000000000000000000000000000000000000000602082015250565b6000612d8460288361229a565b9150612d8f82612d28565b604082019050919050565b60006020820190508181036000830152612db381612d77565b9050919050565b7f5265676973746572696e672070726f706f73616c73207068617365206973206e60008201527f6f742066696e6973686564000000000000000000000000000000000000000000602082015250565b6000612e16602b8361229a565b9150612e2182612dba565b604082019050919050565b60006020820190508181036000830152612e4581612e09565b9050919050565b7f4f776e61626c653a206e6577206f776e657220697320746865207a65726f206160008201527f6464726573730000000000000000000000000000000000000000000000000000602082015250565b6000612ea860268361229a565b9150612eb382612e4c565b604082019050919050565b60006020820190508181036000830152612ed781612e9b565b9050919050565b7f416c726561647920726567697374657265640000000000000000000000000000600082015250565b6000612f1460128361229a565b9150612f1f82612ede565b602082019050919050565b60006020820190508181036000830152612f4381612f07565b905091905056fea2646970667358221220b3243afbe8094bd9cfcb281b936316a2dd83ad64857f0eefcaa134cd8e81425e64736f6c634300080d0033",
  "immutableReferences": {},
  "source": "// SPDX-License-Identifier: MIT\npragma solidity 0.8.13;\n\nimport \"../node_modules/@openzeppelin/contracts/access/Ownable.sol\";\n\n/**\n *  @dev Voting smart contract for small organisations : \n *   \n *  The owner need to register voters on a whitelist via their ethereum addresses.\n *  The voters can submit new proposals during a proposal registration session, \n *  and can vote on proposals during the voting session.\n *  \n *  Vote is not secret. Each voter can see the votes of others. Possible draws.\n */\ncontract Voting is Ownable {\n\n    // arrays for draw, uint for single\n    uint public winningProposalID;\n    uint[] public winningProposalsID;\n    Proposal[] public winningProposals;\n    \n    struct Voter {\n        bool isRegistered;\n        bool hasVoted;\n        uint votedProposalId;\n    }\n\n    struct Proposal {\n        string description;\n        uint voteCount;\n    }\n\n    /**\n     * @dev Status that keep track of the workflow \n     *\n     *  WorkflowStatus |0|1|2|3|4|5|\n     */\n    enum  WorkflowStatus {\n        RegisteringVoters,\n        ProposalsRegistrationStarted,\n        ProposalsRegistrationEnded,\n        VotingSessionStarted,\n        VotingSessionEnded,\n        VotesTallied\n    }\n\n    WorkflowStatus public workflowStatus;\n    Proposal[] proposalsArray;\n    mapping (address => Voter) voters;\n\n    event LogDepositReceived(address senderAddress);\n    event VoterRegistered(address voterAddress); \n    event WorkflowStatusChange(WorkflowStatus previousStatus, WorkflowStatus newStatus);\n    event ProposalRegistered(uint proposalId);\n    event Voted (address voter, uint proposalId);\n\n    modifier onlyVoters() {\n        require(voters[msg.sender].isRegistered, \"You're not a voter\");\n        _;\n    }\n\n    receive() external payable { \n        emit LogDepositReceived(msg.sender); \n    }\n    \n    // on peut faire un modifier pour les tats\n\n    // ::::::::::::: GETTERS ::::::::::::: //\n\n    /**\n     * @dev Returns voter by address as : { isRegistered, hasVoted, votedProposalId }\n     */\n    function getVoter(address _addr) external onlyVoters view returns (Voter memory) {\n        return voters[_addr];\n    }\n    \n    /**\n     * @dev Returns proposal by id\n     */\n    function getOneProposal(uint _id) external onlyVoters view returns (Proposal memory) {\n        return proposalsArray[_id];\n    }\n\n \n    // ::::::::::::: REGISTRATION ::::::::::::: // \n\n    /**\n     * @dev Allows owner to register an address for participation \n     *\n     * WorkflowStatusChange |0|1|2|3|4|5|\n     *                       ^\n     */\n    function addVoter(address _addr) external onlyOwner {\n        require(workflowStatus == WorkflowStatus.RegisteringVoters, 'Voters registration is not open yet');\n        require(voters[_addr].isRegistered != true, 'Already registered');\n    \n        voters[_addr].isRegistered = true;\n        emit VoterRegistered(_addr);\n    }\n    \n    /**\n     * @dev Allows owner to unregister address for participation\n     */\n    function deleteVoter(address _addr) external onlyOwner {\n        require(workflowStatus == WorkflowStatus.RegisteringVoters, 'Voters registration is not open yet');\n        require(voters[_addr].isRegistered == true, 'Not registered.');\n        voters[_addr].isRegistered = false;\n        emit VoterRegistered(_addr);\n    }\n\n    // ::::::::::::: PROPOSAL ::::::::::::: // \n\n    /**\n     * @dev Allows registered voters to submit proposal\n     *\n     * NOTE: maximum number of proposals is capped to avoid DDOS attack  \n     */\n    function addProposal(string memory _desc) external onlyVoters {\n        require(workflowStatus == WorkflowStatus.ProposalsRegistrationStarted, 'Proposals are not allowed yet');\n        require(keccak256(abi.encode(_desc)) != keccak256(abi.encode('')), 'Empty proposal not allowed'); \n        require(proposalsArray.length < 100, 'Too many propositions already'); \n\n        Proposal memory proposal;\n        proposal.description = _desc;\n        proposalsArray.push(proposal);\n        emit ProposalRegistered(proposalsArray.length-1);\n    }\n\n    // ::::::::::::: VOTE ::::::::::::: //\n\n    /**\n     *  @dev Allows registered voters to vote for the proposal of their choice\n     *  \n     *  NOTE: Voter can vote only once\n     */\n    function setVote( uint _id) external onlyVoters {\n        require(workflowStatus == WorkflowStatus.VotingSessionStarted, 'Voting session havent started yet');\n        require(voters[msg.sender].hasVoted != true, 'You have already voted');\n        require(_id < proposalsArray.length, 'Proposal not found'); // pas oblig, et pas besoin du >0 car uint\n\n        voters[msg.sender].votedProposalId = _id;\n        voters[msg.sender].hasVoted = true;\n        proposalsArray[_id].voteCount++;\n\n        emit Voted(msg.sender, _id);\n    }\n\n    // ::::::::::::: STATE ::::::::::::: //\n\n    /* on pourrait factoriser tout a: par exemple:\n    *\n    *  modifier checkWorkflowStatus(uint  _num) {\n    *    require (workflowStatus=WorkflowStatus(uint(_num)-1, \"bad workflowstatus\");\n    *    require (num != 5, \"il faut lancer tally votes\");\n    *    _;\n    *  }\n    *\n    *  function setWorkflowStatus(WorkflowStatus _num) public checkWorkflowStatus( _num) onlyOwner {\n    *    WorkflowStatus old = workflowStatus;\n    *    workflowStatus = WorkflowStatus(_num);\n    *    emit WorkflowStatusChange(old, workflowStatus);\n    *   } \n    *\n    *  ou plus simplement:\n    *  function nextWorkflowStatus() onlyOwner{\n    *    require (uint(workflowStatus)!=4, \"il faut lancer tallyvotes\");\n    *    WorkflowStatus old = workflowStatus;\n    *    workflowStatus= WorkflowStatus(uint (workflowstatus) + 1);\n    *    emit WorkflowStatusChange(old, workflowStatus);\n    *  }\n    *\n    */ \n\n    /**\n     * @dev Allows owner to start a proposal session\n     *\n     * WorkflowStatusChange |0|1|2|3|4|5|\n     *                         ^\n     */\n    function startProposalsRegistering() external onlyOwner {\n        require(workflowStatus == WorkflowStatus.RegisteringVoters, 'Registering proposals cant be started now');\n        workflowStatus = WorkflowStatus.ProposalsRegistrationStarted;\n        emit WorkflowStatusChange(WorkflowStatus.RegisteringVoters, WorkflowStatus.ProposalsRegistrationStarted);\n    }\n\n     /**\n     * @dev Allows owner to end a proposal session\n     *\n     * WorkflowStatusChange |0|1|2|3|4|5|\n     *                           ^\n     */\n    function endProposalsRegistering() external onlyOwner {\n        require(workflowStatus == WorkflowStatus.ProposalsRegistrationStarted, 'Registering proposals havent started yet');\n        workflowStatus = WorkflowStatus.ProposalsRegistrationEnded;\n        emit WorkflowStatusChange(WorkflowStatus.ProposalsRegistrationStarted, WorkflowStatus.ProposalsRegistrationEnded);\n    }\n\n    /**\n     * @dev Allows owner to start a voting session  \n     *\n     * WorkflowStatusChange |0|1|2|3|4|5|\n     *                             ^\n     */\n    function startVotingSession() external onlyOwner {\n        require(workflowStatus == WorkflowStatus.ProposalsRegistrationEnded, 'Registering proposals phase is not finished');\n        workflowStatus = WorkflowStatus.VotingSessionStarted;\n        emit WorkflowStatusChange(WorkflowStatus.ProposalsRegistrationEnded, WorkflowStatus.VotingSessionStarted);\n    }\n\n    /**\n     * @dev Allows owner to end a voting session  \n     *\n     * WorkflowStatusChange |0|1|2|3|4|5|\n     *                               ^\n     */\n    function endVotingSession() external onlyOwner {\n        require(workflowStatus == WorkflowStatus.VotingSessionStarted, 'Voting session havent started yet');\n        workflowStatus = WorkflowStatus.VotingSessionEnded;\n        emit WorkflowStatusChange(WorkflowStatus.VotingSessionStarted, WorkflowStatus.VotingSessionEnded);\n    }\n\n    /**\n    * @dev Allows owner to count votes  \n    *\n    * WorkflowStatusChange |0|1|2|3|4|5|\n    *                                 ^\n    */\n    function tallyVotesDraw() external onlyOwner {\n       require(workflowStatus == WorkflowStatus.VotingSessionEnded, \"Current status is not voting session ended\");\n        uint highestCount;\n        uint[5]memory winners; // egalite entre 5 personnes max\n        uint nbWinners;\n        for (uint i = 0; i < proposalsArray.length; i++) {\n            if (proposalsArray[i].voteCount == highestCount) {\n                winners[nbWinners]=i;\n                nbWinners++;\n            }\n            if (proposalsArray[i].voteCount > highestCount) {\n                delete winners;\n                winners[0]= i;\n                highestCount = proposalsArray[i].voteCount;\n                nbWinners=1;\n            }\n        }\n        for(uint j=0;j<nbWinners;j++){\n            winningProposalsID.push(winners[j]);\n            winningProposals.push(proposalsArray[winners[j]]);\n        }\n        workflowStatus = WorkflowStatus.VotesTallied;\n        emit WorkflowStatusChange(WorkflowStatus.VotingSessionEnded, WorkflowStatus.VotesTallied);\n    }\n\n   function tallyVotes() external onlyOwner {\n        require(workflowStatus == WorkflowStatus.VotingSessionEnded, \"Current status is not voting session ended\");\n        uint _winningProposalId;\n        for (uint256 p = 0; p < proposalsArray.length; p++) {\n            if (proposalsArray[p].voteCount > proposalsArray[_winningProposalId].voteCount) {\n                _winningProposalId = p;\n            }\n        }\n        winningProposalID = _winningProposalId;\n        \n        workflowStatus = WorkflowStatus.VotesTallied;\n        emit WorkflowStatusChange(WorkflowStatus.VotingSessionEnded, WorkflowStatus.VotesTallied);\n    }\n}",
  "sourcePath": "/home/tomawok-work/prog/alyra/Developpeur-Ethereum-Template/6. Dapp/projet3/contracts/Voting.sol",
  "compiler": {
    "name": "solc",
    "version": "0.8.13+commit.abaa5c0e.Emscripten.clang"
  },
  "schemaVersion": "3.4.6",
  "updatedAt": "2022-04-21T13:43:44.280Z",
  "networkType": "ethereum",
  "devdoc": {
    "details": "Voting smart contract for small organisations :      The owner need to register voters on a whitelist via their ethereum addresses.  The voters can submit new proposals during a proposal registration session,   and can vote on proposals during the voting session.    Vote is not secret. Each voter can see the votes of others. Possible draws.",
    "kind": "dev",
    "methods": {
      "addProposal(string)": {
        "details": "Allows registered voters to submit proposal NOTE: maximum number of proposals is capped to avoid DDOS attack  "
      },
      "addVoter(address)": {
        "details": "Allows owner to register an address for participation  WorkflowStatusChange |0|1|2|3|4|5|                       ^"
      },
      "deleteVoter(address)": {
        "details": "Allows owner to unregister address for participation"
      },
      "endProposalsRegistering()": {
        "details": "Allows owner to end a proposal session WorkflowStatusChange |0|1|2|3|4|5|                           ^"
      },
      "endVotingSession()": {
        "details": "Allows owner to end a voting session   WorkflowStatusChange |0|1|2|3|4|5|                               ^"
      },
      "getOneProposal(uint256)": {
        "details": "Returns proposal by id"
      },
      "getVoter(address)": {
        "details": "Returns voter by address as : { isRegistered, hasVoted, votedProposalId }"
      },
      "owner()": {
        "details": "Returns the address of the current owner."
      },
      "renounceOwnership()": {
        "details": "Leaves the contract without owner. It will not be possible to call `onlyOwner` functions anymore. Can only be called by the current owner. NOTE: Renouncing ownership will leave the contract without an owner, thereby removing any functionality that is only available to the owner."
      },
      "setVote(uint256)": {
        "details": "Allows registered voters to vote for the proposal of their choice    NOTE: Voter can vote only once"
      },
      "startProposalsRegistering()": {
        "details": "Allows owner to start a proposal session WorkflowStatusChange |0|1|2|3|4|5|                         ^"
      },
      "startVotingSession()": {
        "details": "Allows owner to start a voting session   WorkflowStatusChange |0|1|2|3|4|5|                             ^"
      },
      "tallyVotesDraw()": {
        "details": "Allows owner to count votes   WorkflowStatusChange |0|1|2|3|4|5|                                 ^"
      },
      "transferOwnership(address)": {
        "details": "Transfers ownership of the contract to a new account (`newOwner`). Can only be called by the current owner."
      }
    },
    "version": 1
  },
  "userdoc": {
    "kind": "user",
    "methods": {},
    "version": 1
  }
}