{
  "contractName": "Voting",
  "abi": [
    {
      "anonymous": false,
      "inputs": [
        {
          "indexed": false,
          "internalType": "address",
          "name": "senderAddress",
          "type": "address"
        }
      ],
      "name": "LogDepositReceived",
      "type": "event"
    },
    {
      "anonymous": false,
      "inputs": [
        {
          "indexed": true,
          "internalType": "address",
          "name": "previousOwner",
          "type": "address"
        },
        {
          "indexed": true,
          "internalType": "address",
          "name": "newOwner",
          "type": "address"
        }
      ],
      "name": "OwnershipTransferred",
      "type": "event"
    },
    {
      "anonymous": false,
      "inputs": [
        {
          "indexed": false,
          "internalType": "uint256",
          "name": "proposalId",
          "type": "uint256"
        }
      ],
      "name": "ProposalRegistered",
      "type": "event"
    },
    {
      "anonymous": false,
      "inputs": [
        {
          "indexed": false,
          "internalType": "address",
          "name": "voter",
          "type": "address"
        },
        {
          "indexed": false,
          "internalType": "uint256",
          "name": "proposalId",
          "type": "uint256"
        }
      ],
      "name": "Voted",
      "type": "event"
    },
    {
      "anonymous": false,
      "inputs": [
        {
          "indexed": false,
          "internalType": "address",
          "name": "voterAddress",
          "type": "address"
        }
      ],
      "name": "VoterRegistered",
      "type": "event"
    },
    {
      "anonymous": false,
      "inputs": [
        {
          "indexed": false,
          "internalType": "enum Voting.WorkflowStatus",
          "name": "previousStatus",
          "type": "uint8"
        },
        {
          "indexed": false,
          "internalType": "enum Voting.WorkflowStatus",
          "name": "newStatus",
          "type": "uint8"
        }
      ],
      "name": "WorkflowStatusChange",
      "type": "event"
    },
    {
      "inputs": [],
      "name": "owner",
      "outputs": [
        {
          "internalType": "address",
          "name": "",
          "type": "address"
        }
      ],
      "stateMutability": "view",
      "type": "function",
      "constant": true
    },
    {
      "inputs": [],
      "name": "renounceOwnership",
      "outputs": [],
      "stateMutability": "nonpayable",
      "type": "function"
    },
    {
      "inputs": [
        {
          "internalType": "address",
          "name": "newOwner",
          "type": "address"
        }
      ],
      "name": "transferOwnership",
      "outputs": [],
      "stateMutability": "nonpayable",
      "type": "function"
    },
    {
      "inputs": [],
      "name": "winningProposalID",
      "outputs": [
        {
          "internalType": "uint256",
          "name": "",
          "type": "uint256"
        }
      ],
      "stateMutability": "view",
      "type": "function",
      "constant": true
    },
    {
      "inputs": [],
      "name": "workflowStatus",
      "outputs": [
        {
          "internalType": "enum Voting.WorkflowStatus",
          "name": "",
          "type": "uint8"
        }
      ],
      "stateMutability": "view",
      "type": "function",
      "constant": true
    },
    {
      "stateMutability": "payable",
      "type": "receive",
      "payable": true
    },
    {
      "inputs": [
        {
          "internalType": "address",
          "name": "_addr",
          "type": "address"
        }
      ],
      "name": "getVoter",
      "outputs": [
        {
          "components": [
            {
              "internalType": "bool",
              "name": "isRegistered",
              "type": "bool"
            },
            {
              "internalType": "bool",
              "name": "hasVoted",
              "type": "bool"
            },
            {
              "internalType": "uint256",
              "name": "votedProposalId",
              "type": "uint256"
            }
          ],
          "internalType": "struct Voting.Voter",
          "name": "",
          "type": "tuple"
        }
      ],
      "stateMutability": "view",
      "type": "function",
      "constant": true
    },
    {
      "inputs": [
        {
          "internalType": "uint256",
          "name": "_id",
          "type": "uint256"
        }
      ],
      "name": "getOneProposal",
      "outputs": [
        {
          "components": [
            {
              "internalType": "string",
              "name": "description",
              "type": "string"
            },
            {
              "internalType": "uint256",
              "name": "voteCount",
              "type": "uint256"
            }
          ],
          "internalType": "struct Voting.Proposal",
          "name": "",
          "type": "tuple"
        }
      ],
      "stateMutability": "view",
      "type": "function",
      "constant": true
    },
    {
      "inputs": [
        {
          "internalType": "address",
          "name": "_addr",
          "type": "address"
        }
      ],
      "name": "addVoter",
      "outputs": [],
      "stateMutability": "nonpayable",
      "type": "function"
    },
    {
      "inputs": [
        {
          "internalType": "address",
          "name": "_addr",
          "type": "address"
        }
      ],
      "name": "deleteVoter",
      "outputs": [],
      "stateMutability": "nonpayable",
      "type": "function"
    },
    {
      "inputs": [
        {
          "internalType": "string",
          "name": "_desc",
          "type": "string"
        }
      ],
      "name": "addProposal",
      "outputs": [],
      "stateMutability": "nonpayable",
      "type": "function"
    },
    {
      "inputs": [
        {
          "internalType": "uint256",
          "name": "_id",
          "type": "uint256"
        }
      ],
      "name": "setVote",
      "outputs": [],
      "stateMutability": "nonpayable",
      "type": "function"
    },
    {
      "inputs": [],
      "name": "startProposalsRegistering",
      "outputs": [],
      "stateMutability": "nonpayable",
      "type": "function"
    },
    {
      "inputs": [],
      "name": "endProposalsRegistering",
      "outputs": [],
      "stateMutability": "nonpayable",
      "type": "function"
    },
    {
      "inputs": [],
      "name": "startVotingSession",
      "outputs": [],
      "stateMutability": "nonpayable",
      "type": "function"
    },
    {
      "inputs": [],
      "name": "endVotingSession",
      "outputs": [],
      "stateMutability": "nonpayable",
      "type": "function"
    },
    {
      "inputs": [],
      "name": "tallyVotes",
      "outputs": [],
      "stateMutability": "nonpayable",
      "type": "function"
    }
  ],
  "bytecode": "0x60806040523480156200001157600080fd5b5062000032620000266200003860201b60201c565b6200004060201b60201c565b62000104565b600033905090565b60008060009054906101000a900473ffffffffffffffffffffffffffffffffffffffff169050816000806101000a81548173ffffffffffffffffffffffffffffffffffffffff021916908373ffffffffffffffffffffffffffffffffffffffff1602179055508173ffffffffffffffffffffffffffffffffffffffff168173ffffffffffffffffffffffffffffffffffffffff167f8be0079c531659141344cd1fd0a4f28419497f9722a3daafe3b4186f6b6457e060405160405180910390a35050565b6129b580620001146000396000f3fe6080604052600436106100f75760003560e01c8063a7bfab161161008a578063d4f50f9811610059578063d4f50f98146102e6578063ee74c67814610323578063f2fde38b1461033a578063f4ab9adf1461036357610135565b8063a7bfab1614610276578063bdc014311461028d578063c7038a4e146102b8578063c88af42f146102cf57610135565b806388e1c739116100c657806388e1c739146101ba5780638da5cb5b146101e3578063a1edffa21461020e578063a2788cce1461023957610135565b8063230796ae1461013a5780632fdae3c514610163578063378a21781461018c578063715018a6146101a357610135565b36610135577f15382559391789f1865e10e9c8b51327a9cb0381eae89973ada229e7a78c08f33360405161012b9190611ad3565b60405180910390a1005b600080fd5b34801561014657600080fd5b50610161600480360381019061015c9190611b38565b61038c565b005b34801561016f57600080fd5b5061018a60048036038101906101859190611cab565b610687565b005b34801561019857600080fd5b506101a1610912565b005b3480156101af57600080fd5b506101b8610af3565b005b3480156101c657600080fd5b506101e160048036038101906101dc9190611d20565b610b7b565b005b3480156101ef57600080fd5b506101f8610d98565b6040516102059190611ad3565b60405180910390f35b34801561021a57600080fd5b50610223610dc1565b6040516102309190611dc4565b60405180910390f35b34801561024557600080fd5b50610260600480360381019061025b9190611b38565b610dd4565b60405161026d9190611eb3565b60405180910390f35b34801561028257600080fd5b5061028b610f3b565b005b34801561029957600080fd5b506102a2611095565b6040516102af9190611ee4565b60405180910390f35b3480156102c457600080fd5b506102cd61109b565b005b3480156102db57600080fd5b506102e46111f5565b005b3480156102f257600080fd5b5061030d60048036038101906103089190611d20565b61134e565b60405161031a9190611f5c565b60405180910390f35b34801561032f57600080fd5b50610338611476565b005b34801561034657600080fd5b50610361600480360381019061035c9190611d20565b6115d0565b005b34801561036f57600080fd5b5061038a60048036038101906103859190611d20565b6116c7565b005b600460003373ffffffffffffffffffffffffffffffffffffffff1673ffffffffffffffffffffffffffffffffffffffff16815260200190815260200160002060000160009054906101000a900460ff1661041b576040517f08c379a000000000000000000000000000000000000000000000000000000000815260040161041290611fd4565b60405180910390fd5b6003600581111561042f5761042e611d4d565b5b600260009054906101000a900460ff16600581111561045157610450611d4d565b5b14610491576040517f08c379a000000000000000000000000000000000000000000000000000000000815260040161048890612066565b60405180910390fd5b60011515600460003373ffffffffffffffffffffffffffffffffffffffff1673ffffffffffffffffffffffffffffffffffffffff16815260200190815260200160002060000160019054906101000a900460ff16151503610527576040517f08c379a000000000000000000000000000000000000000000000000000000000815260040161051e906120d2565b60405180910390fd5b600380549050811061056e576040517f08c379a00000000000000000000000000000000000000000000000000000000081526004016105659061213e565b60405180910390fd5b80600460003373ffffffffffffffffffffffffffffffffffffffff1673ffffffffffffffffffffffffffffffffffffffff168152602001908152602001600020600101819055506001600460003373ffffffffffffffffffffffffffffffffffffffff1673ffffffffffffffffffffffffffffffffffffffff16815260200190815260200160002060000160016101000a81548160ff021916908315150217905550600381815481106106245761062361215e565b5b90600052602060002090600202016001016000815480929190610646906121bc565b91905055507f4d99b957a2bc29a30ebd96a7be8e68fe50a3c701db28a91436490b7d53870ca4338260405161067c929190612204565b60405180910390a150565b600460003373ffffffffffffffffffffffffffffffffffffffff1673ffffffffffffffffffffffffffffffffffffffff16815260200190815260200160002060000160009054906101000a900460ff16610716576040517f08c379a000000000000000000000000000000000000000000000000000000000815260040161070d90611fd4565b60405180910390fd5b6001600581111561072a57610729611d4d565b5b600260009054906101000a900460ff16600581111561074c5761074b611d4d565b5b1461078c576040517f08c379a000000000000000000000000000000000000000000000000000000000815260040161078390612279565b60405180910390fd5b60405160200161079b906122bf565b60405160208183030381529060405280519060200120816040516020016107c29190612318565b6040516020818303038152906040528051906020012003610818576040517f08c379a000000000000000000000000000000000000000000000000000000000815260040161080f90612386565b60405180910390fd5b606460038054905010610860576040517f08c379a0000000000000000000000000000000000000000000000000000000008152600401610857906123f2565b60405180910390fd5b6108686119b0565b818160000181905250600381908060018154018082558091505060019003906000526020600020906002020160009091909190915060008201518160000190805190602001906108b99291906119ca565b506020820151816001015550507f92e393e9b54e2f801d3ea4beb0c5e71a21cc34a5d34b77d0fb8a3aa1650dc18f60016003805490506108f99190612412565b6040516109069190611ee4565b60405180910390a15050565b61091a6118e4565b73ffffffffffffffffffffffffffffffffffffffff16610938610d98565b73ffffffffffffffffffffffffffffffffffffffff161461098e576040517f08c379a000000000000000000000000000000000000000000000000000000000815260040161098590612492565b60405180910390fd5b600460058111156109a2576109a1611d4d565b5b600260009054906101000a900460ff1660058111156109c4576109c3611d4d565b5b14610a04576040517f08c379a00000000000000000000000000000000000000000000000000000000081526004016109fb90612524565b60405180910390fd5b600080600090505b600380549050811015610a825760038281548110610a2d57610a2c61215e565b5b90600052602060002090600202016001015460038281548110610a5357610a5261215e565b5b9060005260206000209060020201600101541115610a6f578091505b8080610a7a906121bc565b915050610a0c565b50806001819055506005600260006101000a81548160ff02191690836005811115610ab057610aaf611d4d565b5b02179055507f0a97a4ee45751e2abf3e4fc8946939630b11b371ea8ae39ccdc3056e98f5cc3f60046005604051610ae8929190612544565b60405180910390a150565b610afb6118e4565b73ffffffffffffffffffffffffffffffffffffffff16610b19610d98565b73ffffffffffffffffffffffffffffffffffffffff1614610b6f576040517f08c379a0000000000000000000000000000000000000000000000000000000008152600401610b6690612492565b60405180910390fd5b610b7960006118ec565b565b610b836118e4565b73ffffffffffffffffffffffffffffffffffffffff16610ba1610d98565b73ffffffffffffffffffffffffffffffffffffffff1614610bf7576040517f08c379a0000000000000000000000000000000000000000000000000000000008152600401610bee90612492565b60405180910390fd5b60006005811115610c0b57610c0a611d4d565b5b600260009054906101000a900460ff166005811115610c2d57610c2c611d4d565b5b14610c6d576040517f08c379a0000000000000000000000000000000000000000000000000000000008152600401610c64906125df565b60405180910390fd5b60011515600460008373ffffffffffffffffffffffffffffffffffffffff1673ffffffffffffffffffffffffffffffffffffffff16815260200190815260200160002060000160009054906101000a900460ff16151514610d03576040517f08c379a0000000000000000000000000000000000000000000000000000000008152600401610cfa9061264b565b60405180910390fd5b6000600460008373ffffffffffffffffffffffffffffffffffffffff1673ffffffffffffffffffffffffffffffffffffffff16815260200190815260200160002060000160006101000a81548160ff0219169083151502179055507fb6be2187d059cc2a55fe29e0e503b566e1e0f8c8780096e185429350acffd3dd81604051610d8d9190611ad3565b60405180910390a150565b60008060009054906101000a900473ffffffffffffffffffffffffffffffffffffffff16905090565b600260009054906101000a900460ff1681565b610ddc6119b0565b600460003373ffffffffffffffffffffffffffffffffffffffff1673ffffffffffffffffffffffffffffffffffffffff16815260200190815260200160002060000160009054906101000a900460ff16610e6b576040517f08c379a0000000000000000000000000000000000000000000000000000000008152600401610e6290611fd4565b60405180910390fd5b60038281548110610e7f57610e7e61215e565b5b9060005260206000209060020201604051806040016040529081600082018054610ea89061269a565b80601f0160208091040260200160405190810160405280929190818152602001828054610ed49061269a565b8015610f215780601f10610ef657610100808354040283529160200191610f21565b820191906000526020600020905b815481529060010190602001808311610f0457829003601f168201915b505050505081526020016001820154815250509050919050565b610f436118e4565b73ffffffffffffffffffffffffffffffffffffffff16610f61610d98565b73ffffffffffffffffffffffffffffffffffffffff1614610fb7576040517f08c379a0000000000000000000000000000000000000000000000000000000008152600401610fae90612492565b60405180910390fd5b60036005811115610fcb57610fca611d4d565b5b600260009054906101000a900460ff166005811115610fed57610fec611d4d565b5b1461102d576040517f08c379a000000000000000000000000000000000000000000000000000000000815260040161102490612066565b60405180910390fd5b6004600260006101000a81548160ff0219169083600581111561105357611052611d4d565b5b02179055507f0a97a4ee45751e2abf3e4fc8946939630b11b371ea8ae39ccdc3056e98f5cc3f6003600460405161108b929190612544565b60405180910390a1565b60015481565b6110a36118e4565b73ffffffffffffffffffffffffffffffffffffffff166110c1610d98565b73ffffffffffffffffffffffffffffffffffffffff1614611117576040517f08c379a000000000000000000000000000000000000000000000000000000000815260040161110e90612492565b60405180910390fd5b6000600581111561112b5761112a611d4d565b5b600260009054906101000a900460ff16600581111561114d5761114c611d4d565b5b1461118d576040517f08c379a00000000000000000000000000000000000000000000000000000000081526004016111849061273d565b60405180910390fd5b6001600260006101000a81548160ff021916908360058111156111b3576111b2611d4d565b5b02179055507f0a97a4ee45751e2abf3e4fc8946939630b11b371ea8ae39ccdc3056e98f5cc3f600060016040516111eb929190612544565b60405180910390a1565b6111fd6118e4565b73ffffffffffffffffffffffffffffffffffffffff1661121b610d98565b73ffffffffffffffffffffffffffffffffffffffff1614611271576040517f08c379a000000000000000000000000000000000000000000000000000000000815260040161126890612492565b60405180910390fd5b6001600581111561128557611284611d4d565b5b600260009054906101000a900460ff1660058111156112a7576112a6611d4d565b5b146112e7576040517f08c379a00000000000000000000000000000000000000000000000000000000081526004016112de906127cf565b60405180910390fd5b60028060006101000a81548160ff0219169083600581111561130c5761130b611d4d565b5b02179055507f0a97a4ee45751e2abf3e4fc8946939630b11b371ea8ae39ccdc3056e98f5cc3f60016002604051611344929190612544565b60405180910390a1565b611356611a50565b600460003373ffffffffffffffffffffffffffffffffffffffff1673ffffffffffffffffffffffffffffffffffffffff16815260200190815260200160002060000160009054906101000a900460ff166113e5576040517f08c379a00000000000000000000000000000000000000000000000000000000081526004016113dc90611fd4565b60405180910390fd5b600460008373ffffffffffffffffffffffffffffffffffffffff1673ffffffffffffffffffffffffffffffffffffffff1681526020019081526020016000206040518060600160405290816000820160009054906101000a900460ff161515151581526020016000820160019054906101000a900460ff161515151581526020016001820154815250509050919050565b61147e6118e4565b73ffffffffffffffffffffffffffffffffffffffff1661149c610d98565b73ffffffffffffffffffffffffffffffffffffffff16146114f2576040517f08c379a00000000000000000000000000000000000000000000000000000000081526004016114e990612492565b60405180910390fd5b6002600581111561150657611505611d4d565b5b600260009054906101000a900460ff16600581111561152857611527611d4d565b5b14611568576040517f08c379a000000000000000000000000000000000000000000000000000000000815260040161155f90612861565b60405180910390fd5b6003600260006101000a81548160ff0219169083600581111561158e5761158d611d4d565b5b02179055507f0a97a4ee45751e2abf3e4fc8946939630b11b371ea8ae39ccdc3056e98f5cc3f600260036040516115c6929190612544565b60405180910390a1565b6115d86118e4565b73ffffffffffffffffffffffffffffffffffffffff166115f6610d98565b73ffffffffffffffffffffffffffffffffffffffff161461164c576040517f08c379a000000000000000000000000000000000000000000000000000000000815260040161164390612492565b60405180910390fd5b600073ffffffffffffffffffffffffffffffffffffffff168173ffffffffffffffffffffffffffffffffffffffff16036116bb576040517f08c379a00000000000000000000000000000000000000000000000000000000081526004016116b2906128f3565b60405180910390fd5b6116c4816118ec565b50565b6116cf6118e4565b73ffffffffffffffffffffffffffffffffffffffff166116ed610d98565b73ffffffffffffffffffffffffffffffffffffffff1614611743576040517f08c379a000000000000000000000000000000000000000000000000000000000815260040161173a90612492565b60405180910390fd5b6000600581111561175757611756611d4d565b5b600260009054906101000a900460ff16600581111561177957611778611d4d565b5b146117b9576040517f08c379a00000000000000000000000000000000000000000000000000000000081526004016117b0906125df565b60405180910390fd5b60011515600460008373ffffffffffffffffffffffffffffffffffffffff1673ffffffffffffffffffffffffffffffffffffffff16815260200190815260200160002060000160009054906101000a900460ff1615150361184f576040517f08c379a00000000000000000000000000000000000000000000000000000000081526004016118469061295f565b60405180910390fd5b6001600460008373ffffffffffffffffffffffffffffffffffffffff1673ffffffffffffffffffffffffffffffffffffffff16815260200190815260200160002060000160006101000a81548160ff0219169083151502179055507fb6be2187d059cc2a55fe29e0e503b566e1e0f8c8780096e185429350acffd3dd816040516118d99190611ad3565b60405180910390a150565b600033905090565b60008060009054906101000a900473ffffffffffffffffffffffffffffffffffffffff169050816000806101000a81548173ffffffffffffffffffffffffffffffffffffffff021916908373ffffffffffffffffffffffffffffffffffffffff1602179055508173ffffffffffffffffffffffffffffffffffffffff168173ffffffffffffffffffffffffffffffffffffffff167f8be0079c531659141344cd1fd0a4f28419497f9722a3daafe3b4186f6b6457e060405160405180910390a35050565b604051806040016040528060608152602001600081525090565b8280546119d69061269a565b90600052602060002090601f0160209004810192826119f85760008555611a3f565b82601f10611a1157805160ff1916838001178555611a3f565b82800160010185558215611a3f579182015b82811115611a3e578251825591602001919060010190611a23565b5b509050611a4c9190611a75565b5090565b6040518060600160405280600015158152602001600015158152602001600081525090565b5b80821115611a8e576000816000905550600101611a76565b5090565b600073ffffffffffffffffffffffffffffffffffffffff82169050919050565b6000611abd82611a92565b9050919050565b611acd81611ab2565b82525050565b6000602082019050611ae86000830184611ac4565b92915050565b6000604051905090565b600080fd5b600080fd5b6000819050919050565b611b1581611b02565b8114611b2057600080fd5b50565b600081359050611b3281611b0c565b92915050565b600060208284031215611b4e57611b4d611af8565b5b6000611b5c84828501611b23565b91505092915050565b600080fd5b600080fd5b6000601f19601f8301169050919050565b7f4e487b7100000000000000000000000000000000000000000000000000000000600052604160045260246000fd5b611bb882611b6f565b810181811067ffffffffffffffff82111715611bd757611bd6611b80565b5b80604052505050565b6000611bea611aee565b9050611bf68282611baf565b919050565b600067ffffffffffffffff821115611c1657611c15611b80565b5b611c1f82611b6f565b9050602081019050919050565b82818337600083830152505050565b6000611c4e611c4984611bfb565b611be0565b905082815260208101848484011115611c6a57611c69611b6a565b5b611c75848285611c2c565b509392505050565b600082601f830112611c9257611c91611b65565b5b8135611ca2848260208601611c3b565b91505092915050565b600060208284031215611cc157611cc0611af8565b5b600082013567ffffffffffffffff811115611cdf57611cde611afd565b5b611ceb84828501611c7d565b91505092915050565b611cfd81611ab2565b8114611d0857600080fd5b50565b600081359050611d1a81611cf4565b92915050565b600060208284031215611d3657611d35611af8565b5b6000611d4484828501611d0b565b91505092915050565b7f4e487b7100000000000000000000000000000000000000000000000000000000600052602160045260246000fd5b60068110611d8d57611d8c611d4d565b5b50565b6000819050611d9e82611d7c565b919050565b6000611dae82611d90565b9050919050565b611dbe81611da3565b82525050565b6000602082019050611dd96000830184611db5565b92915050565b600081519050919050565b600082825260208201905092915050565b60005b83811015611e19578082015181840152602081019050611dfe565b83811115611e28576000848401525b50505050565b6000611e3982611ddf565b611e438185611dea565b9350611e53818560208601611dfb565b611e5c81611b6f565b840191505092915050565b611e7081611b02565b82525050565b60006040830160008301518482036000860152611e938282611e2e565b9150506020830151611ea86020860182611e67565b508091505092915050565b60006020820190508181036000830152611ecd8184611e76565b905092915050565b611ede81611b02565b82525050565b6000602082019050611ef96000830184611ed5565b92915050565b60008115159050919050565b611f1481611eff565b82525050565b606082016000820151611f306000850182611f0b565b506020820151611f436020850182611f0b565b506040820151611f566040850182611e67565b50505050565b6000606082019050611f716000830184611f1a565b92915050565b600082825260208201905092915050565b7f596f75277265206e6f74206120766f7465720000000000000000000000000000600082015250565b6000611fbe601283611f77565b9150611fc982611f88565b602082019050919050565b60006020820190508181036000830152611fed81611fb1565b9050919050565b7f566f74696e672073657373696f6e20686176656e74207374617274656420796560008201527f7400000000000000000000000000000000000000000000000000000000000000602082015250565b6000612050602183611f77565b915061205b82611ff4565b604082019050919050565b6000602082019050818103600083015261207f81612043565b9050919050565b7f596f75206861766520616c726561647920766f74656400000000000000000000600082015250565b60006120bc601683611f77565b91506120c782612086565b602082019050919050565b600060208201905081810360008301526120eb816120af565b9050919050565b7f50726f706f73616c206e6f7420666f756e640000000000000000000000000000600082015250565b6000612128601283611f77565b9150612133826120f2565b602082019050919050565b600060208201905081810360008301526121578161211b565b9050919050565b7f4e487b7100000000000000000000000000000000000000000000000000000000600052603260045260246000fd5b7f4e487b7100000000000000000000000000000000000000000000000000000000600052601160045260246000fd5b60006121c782611b02565b91507fffffffffffffffffffffffffffffffffffffffffffffffffffffffffffffffff82036121f9576121f861218d565b5b600182019050919050565b60006040820190506122196000830185611ac4565b6122266020830184611ed5565b9392505050565b7f50726f706f73616c7320617265206e6f7420616c6c6f77656420796574000000600082015250565b6000612263601d83611f77565b915061226e8261222d565b602082019050919050565b6000602082019050818103600083015261229281612256565b9050919050565b50565b60006122a9600083611f77565b91506122b482612299565b600082019050919050565b600060208201905081810360008301526122d88161229c565b9050919050565b60006122ea82611ddf565b6122f48185611f77565b9350612304818560208601611dfb565b61230d81611b6f565b840191505092915050565b6000602082019050818103600083015261233281846122df565b905092915050565b7f456d7074792070726f706f73616c206e6f7420616c6c6f776564000000000000600082015250565b6000612370601a83611f77565b915061237b8261233a565b602082019050919050565b6000602082019050818103600083015261239f81612363565b9050919050565b7f546f6f206d616e792070726f706f736974696f6e7320616c7265616479000000600082015250565b60006123dc601d83611f77565b91506123e7826123a6565b602082019050919050565b6000602082019050818103600083015261240b816123cf565b9050919050565b600061241d82611b02565b915061242883611b02565b92508282101561243b5761243a61218d565b5b828203905092915050565b7f4f776e61626c653a2063616c6c6572206973206e6f7420746865206f776e6572600082015250565b600061247c602083611f77565b915061248782612446565b602082019050919050565b600060208201905081810360008301526124ab8161246f565b9050919050565b7f43757272656e7420737461747573206973206e6f7420766f74696e672073657360008201527f73696f6e20656e64656400000000000000000000000000000000000000000000602082015250565b600061250e602a83611f77565b9150612519826124b2565b604082019050919050565b6000602082019050818103600083015261253d81612501565b9050919050565b60006040820190506125596000830185611db5565b6125666020830184611db5565b9392505050565b7f566f7465727320726567697374726174696f6e206973206e6f74206f70656e2060008201527f7965740000000000000000000000000000000000000000000000000000000000602082015250565b60006125c9602383611f77565b91506125d48261256d565b604082019050919050565b600060208201905081810360008301526125f8816125bc565b9050919050565b7f4e6f7420726567697374657265642e0000000000000000000000000000000000600082015250565b6000612635600f83611f77565b9150612640826125ff565b602082019050919050565b6000602082019050818103600083015261266481612628565b9050919050565b7f4e487b7100000000000000000000000000000000000000000000000000000000600052602260045260246000fd5b600060028204905060018216806126b257607f821691505b6020821081036126c5576126c461266b565b5b50919050565b7f5265676973746572696e672070726f706f73616c732063616e7420626520737460008201527f6172746564206e6f770000000000000000000000000000000000000000000000602082015250565b6000612727602983611f77565b9150612732826126cb565b604082019050919050565b600060208201905081810360008301526127568161271a565b9050919050565b7f5265676973746572696e672070726f706f73616c7320686176656e742073746160008201527f7274656420796574000000000000000000000000000000000000000000000000602082015250565b60006127b9602883611f77565b91506127c48261275d565b604082019050919050565b600060208201905081810360008301526127e8816127ac565b9050919050565b7f5265676973746572696e672070726f706f73616c73207068617365206973206e60008201527f6f742066696e6973686564000000000000000000000000000000000000000000602082015250565b600061284b602b83611f77565b9150612856826127ef565b604082019050919050565b6000602082019050818103600083015261287a8161283e565b9050919050565b7f4f776e61626c653a206e6577206f776e657220697320746865207a65726f206160008201527f6464726573730000000000000000000000000000000000000000000000000000602082015250565b60006128dd602683611f77565b91506128e882612881565b604082019050919050565b6000602082019050818103600083015261290c816128d0565b9050919050565b7f416c726561647920726567697374657265640000000000000000000000000000600082015250565b6000612949601283611f77565b915061295482612913565b602082019050919050565b600060208201905081810360008301526129788161293c565b905091905056fea26469706673582212204690450f5df1262a79728e059cc899e0e6d19d2cbfba405a0bdb637ad773da4264736f6c634300080d0033",
  "immutableReferences": {},
  "source": "// SPDX-License-Identifier: MIT\npragma solidity 0.8.13;\n\nimport \"../node_modules/@openzeppelin/contracts/access/Ownable.sol\";\n\n/**\n *  @dev Voting smart contract for small organisations : \n *   \n *  The owner need to register voters on a whitelist via their ethereum addresses.\n *  The voters can submit new proposals during a proposal registration session, \n *  and can vote on proposals during the voting session.\n *  \n *  Vote is not secret. Each voter can see the votes of others. Possible draws.\n */\ncontract Voting is Ownable {\n\n    // arrays for draw, uint for single\n    uint public winningProposalID;\n    \n    struct Voter {\n        bool isRegistered;\n        bool hasVoted;\n        uint votedProposalId;\n    }\n\n    struct Proposal {\n        string description;\n        uint voteCount;\n    }\n\n    /**\n     * @dev Status that keep track of the workflow \n     *\n     *  WorkflowStatus |0|1|2|3|4|5|\n     */\n    enum  WorkflowStatus {\n        RegisteringVoters,\n        ProposalsRegistrationStarted,\n        ProposalsRegistrationEnded,\n        VotingSessionStarted,\n        VotingSessionEnded,\n        VotesTallied\n    }\n\n    WorkflowStatus public workflowStatus;\n    Proposal[] proposalsArray;\n    mapping (address => Voter) voters;\n\n    event LogDepositReceived(address senderAddress);\n    event VoterRegistered(address voterAddress); \n    event WorkflowStatusChange(WorkflowStatus previousStatus, WorkflowStatus newStatus);\n    event ProposalRegistered(uint proposalId);\n    event Voted (address voter, uint proposalId);\n\n    modifier onlyVoters() {\n        require(voters[msg.sender].isRegistered, \"You're not a voter\");\n        _;\n    }\n\n    receive() external payable { \n        emit LogDepositReceived(msg.sender); \n    }\n    \n    // on peut faire un modifier pour les tats\n\n    // ::::::::::::: GETTERS ::::::::::::: //\n\n    /**\n     * @dev Returns voter by address as : { isRegistered, hasVoted, votedProposalId }\n     */\n    function getVoter(address _addr) external onlyVoters view returns (Voter memory) {\n        return voters[_addr];\n    }\n    \n    /**\n     * @dev Returns proposal by id\n     */\n    function getOneProposal(uint _id) external onlyVoters view returns (Proposal memory) {\n        return proposalsArray[_id];\n    }\n\n \n    // ::::::::::::: REGISTRATION ::::::::::::: // \n\n    /**\n     * @dev Allows owner to register an address for participation \n     *\n     * WorkflowStatusChange |0|1|2|3|4|5|\n     *                       ^\n     */\n    function addVoter(address _addr) external onlyOwner {\n        require(workflowStatus == WorkflowStatus.RegisteringVoters, 'Voters registration is not open yet');\n        require(voters[_addr].isRegistered != true, 'Already registered');\n    \n        voters[_addr].isRegistered = true;\n        emit VoterRegistered(_addr);\n    }\n    \n    /**\n     * @dev Allows owner to unregister address for participation\n     */\n    function deleteVoter(address _addr) external onlyOwner {\n        require(workflowStatus == WorkflowStatus.RegisteringVoters, 'Voters registration is not open yet');\n        require(voters[_addr].isRegistered == true, 'Not registered.');\n        voters[_addr].isRegistered = false;\n        emit VoterRegistered(_addr);\n    }\n\n    // ::::::::::::: PROPOSAL ::::::::::::: // \n\n    /**\n     * @dev Allows registered voters to submit proposal\n     *\n     * NOTE: maximum number of proposals is capped to avoid DDOS attack  \n     */\n    function addProposal(string memory _desc) external onlyVoters {\n        require(workflowStatus == WorkflowStatus.ProposalsRegistrationStarted, 'Proposals are not allowed yet');\n        require(keccak256(abi.encode(_desc)) != keccak256(abi.encode('')), 'Empty proposal not allowed'); \n        require(proposalsArray.length < 100, 'Too many propositions already'); \n\n        Proposal memory proposal;\n        proposal.description = _desc;\n        proposalsArray.push(proposal);\n        emit ProposalRegistered(proposalsArray.length-1);\n    }\n\n    // ::::::::::::: VOTE ::::::::::::: //\n\n    /**\n     *  @dev Allows registered voters to vote for the proposal of their choice\n     *  \n     *  NOTE: Voter can vote only once\n     */\n    function setVote( uint _id) external onlyVoters {\n        require(workflowStatus == WorkflowStatus.VotingSessionStarted, 'Voting session havent started yet');\n        require(voters[msg.sender].hasVoted != true, 'You have already voted');\n        require(_id < proposalsArray.length, 'Proposal not found'); // pas oblig, et pas besoin du >0 car uint\n\n        voters[msg.sender].votedProposalId = _id;\n        voters[msg.sender].hasVoted = true;\n        proposalsArray[_id].voteCount++;\n\n        emit Voted(msg.sender, _id);\n    }\n\n    // ::::::::::::: STATE ::::::::::::: //\n\n    /**\n     * @dev Allows owner to start a proposal session\n     *\n     * WorkflowStatusChange |0|1|2|3|4|5|\n     *                         ^\n     */\n    function startProposalsRegistering() external onlyOwner {\n        require(workflowStatus == WorkflowStatus.RegisteringVoters, 'Registering proposals cant be started now');\n        workflowStatus = WorkflowStatus.ProposalsRegistrationStarted;\n        emit WorkflowStatusChange(WorkflowStatus.RegisteringVoters, WorkflowStatus.ProposalsRegistrationStarted);\n    }\n\n     /**\n     * @dev Allows owner to end a proposal session\n     *\n     * WorkflowStatusChange |0|1|2|3|4|5|\n     *                           ^\n     */\n    function endProposalsRegistering() external onlyOwner {\n        require(workflowStatus == WorkflowStatus.ProposalsRegistrationStarted, 'Registering proposals havent started yet');\n        workflowStatus = WorkflowStatus.ProposalsRegistrationEnded;\n        emit WorkflowStatusChange(WorkflowStatus.ProposalsRegistrationStarted, WorkflowStatus.ProposalsRegistrationEnded);\n    }\n\n    /**\n     * @dev Allows owner to start a voting session  \n     *\n     * WorkflowStatusChange |0|1|2|3|4|5|\n     *                             ^\n     */\n    function startVotingSession() external onlyOwner {\n        require(workflowStatus == WorkflowStatus.ProposalsRegistrationEnded, 'Registering proposals phase is not finished');\n        workflowStatus = WorkflowStatus.VotingSessionStarted;\n        emit WorkflowStatusChange(WorkflowStatus.ProposalsRegistrationEnded, WorkflowStatus.VotingSessionStarted);\n    }\n\n    /**\n     * @dev Allows owner to end a voting session  \n     *\n     * WorkflowStatusChange |0|1|2|3|4|5|\n     *                               ^\n     */\n    function endVotingSession() external onlyOwner {\n        require(workflowStatus == WorkflowStatus.VotingSessionStarted, 'Voting session havent started yet');\n        workflowStatus = WorkflowStatus.VotingSessionEnded;\n        emit WorkflowStatusChange(WorkflowStatus.VotingSessionStarted, WorkflowStatus.VotingSessionEnded);\n    }\n\n    /**\n    * @dev Allows owner to count votes  \n    *\n    * WorkflowStatusChange |0|1|2|3|4|5|\n    *                                 ^\n    */\n    function tallyVotes() external onlyOwner {\n        require(workflowStatus == WorkflowStatus.VotingSessionEnded, \"Current status is not voting session ended\");\n        uint _winningProposalId;\n        for (uint256 p = 0; p < proposalsArray.length; p++) {\n            if (proposalsArray[p].voteCount > proposalsArray[_winningProposalId].voteCount) {\n                _winningProposalId = p;\n            }\n        }\n        winningProposalID = _winningProposalId;\n        \n        workflowStatus = WorkflowStatus.VotesTallied;\n        emit WorkflowStatusChange(WorkflowStatus.VotingSessionEnded, WorkflowStatus.VotesTallied);\n    }\n}",
  "sourcePath": "/home/tomawok-work/prog/alyra/Developpeur-Ethereum-Template/6. Dapp/projet3/contracts/Voting.sol",
  "compiler": {
    "name": "solc",
    "version": "0.8.13+commit.abaa5c0e.Emscripten.clang"
  },
  "schemaVersion": "3.4.6",
  "updatedAt": "2022-04-24T18:32:46.684Z",
  "networkType": "ethereum",
  "devdoc": {
    "details": "Voting smart contract for small organisations :      The owner need to register voters on a whitelist via their ethereum addresses.  The voters can submit new proposals during a proposal registration session,   and can vote on proposals during the voting session.    Vote is not secret. Each voter can see the votes of others. Possible draws.",
    "kind": "dev",
    "methods": {
      "addProposal(string)": {
        "details": "Allows registered voters to submit proposal NOTE: maximum number of proposals is capped to avoid DDOS attack  "
      },
      "addVoter(address)": {
        "details": "Allows owner to register an address for participation  WorkflowStatusChange |0|1|2|3|4|5|                       ^"
      },
      "deleteVoter(address)": {
        "details": "Allows owner to unregister address for participation"
      },
      "endProposalsRegistering()": {
        "details": "Allows owner to end a proposal session WorkflowStatusChange |0|1|2|3|4|5|                           ^"
      },
      "endVotingSession()": {
        "details": "Allows owner to end a voting session   WorkflowStatusChange |0|1|2|3|4|5|                               ^"
      },
      "getOneProposal(uint256)": {
        "details": "Returns proposal by id"
      },
      "getVoter(address)": {
        "details": "Returns voter by address as : { isRegistered, hasVoted, votedProposalId }"
      },
      "owner()": {
        "details": "Returns the address of the current owner."
      },
      "renounceOwnership()": {
        "details": "Leaves the contract without owner. It will not be possible to call `onlyOwner` functions anymore. Can only be called by the current owner. NOTE: Renouncing ownership will leave the contract without an owner, thereby removing any functionality that is only available to the owner."
      },
      "setVote(uint256)": {
        "details": "Allows registered voters to vote for the proposal of their choice    NOTE: Voter can vote only once"
      },
      "startProposalsRegistering()": {
        "details": "Allows owner to start a proposal session WorkflowStatusChange |0|1|2|3|4|5|                         ^"
      },
      "startVotingSession()": {
        "details": "Allows owner to start a voting session   WorkflowStatusChange |0|1|2|3|4|5|                             ^"
      },
      "tallyVotes()": {
        "details": "Allows owner to count votes   WorkflowStatusChange |0|1|2|3|4|5|                                 ^"
      },
      "transferOwnership(address)": {
        "details": "Transfers ownership of the contract to a new account (`newOwner`). Can only be called by the current owner."
      }
    },
    "version": 1
  },
  "userdoc": {
    "kind": "user",
    "methods": {},
    "version": 1
  }
}