{
  "contractName": "Devinez",
  "abi": [
    {
      "anonymous": false,
      "inputs": [
        {
          "indexed": true,
          "internalType": "address",
          "name": "previousOwner",
          "type": "address"
        },
        {
          "indexed": true,
          "internalType": "address",
          "name": "newOwner",
          "type": "address"
        }
      ],
      "name": "OwnershipTransferred",
      "type": "event"
    },
    {
      "inputs": [],
      "name": "gagnant",
      "outputs": [
        {
          "internalType": "address",
          "name": "",
          "type": "address"
        }
      ],
      "stateMutability": "view",
      "type": "function",
      "constant": true
    },
    {
      "inputs": [],
      "name": "indice",
      "outputs": [
        {
          "internalType": "string",
          "name": "",
          "type": "string"
        }
      ],
      "stateMutability": "view",
      "type": "function",
      "constant": true
    },
    {
      "inputs": [],
      "name": "owner",
      "outputs": [
        {
          "internalType": "address",
          "name": "",
          "type": "address"
        }
      ],
      "stateMutability": "view",
      "type": "function",
      "constant": true
    },
    {
      "inputs": [
        {
          "internalType": "uint256",
          "name": "",
          "type": "uint256"
        }
      ],
      "name": "players",
      "outputs": [
        {
          "internalType": "address",
          "name": "",
          "type": "address"
        }
      ],
      "stateMutability": "view",
      "type": "function",
      "constant": true
    },
    {
      "inputs": [],
      "name": "renounceOwnership",
      "outputs": [],
      "stateMutability": "nonpayable",
      "type": "function"
    },
    {
      "inputs": [
        {
          "internalType": "address",
          "name": "newOwner",
          "type": "address"
        }
      ],
      "name": "transferOwnership",
      "outputs": [],
      "stateMutability": "nonpayable",
      "type": "function"
    },
    {
      "inputs": [
        {
          "internalType": "string",
          "name": "_mot",
          "type": "string"
        },
        {
          "internalType": "string",
          "name": "_indice",
          "type": "string"
        }
      ],
      "name": "setMot",
      "outputs": [],
      "stateMutability": "nonpayable",
      "type": "function"
    },
    {
      "inputs": [],
      "name": "getWinner",
      "outputs": [
        {
          "internalType": "string",
          "name": "",
          "type": "string"
        }
      ],
      "stateMutability": "view",
      "type": "function",
      "constant": true
    },
    {
      "inputs": [
        {
          "internalType": "string",
          "name": "_try",
          "type": "string"
        }
      ],
      "name": "playWord",
      "outputs": [
        {
          "internalType": "bool",
          "name": "",
          "type": "bool"
        }
      ],
      "stateMutability": "nonpayable",
      "type": "function"
    },
    {
      "inputs": [
        {
          "internalType": "string",
          "name": "_mot",
          "type": "string"
        },
        {
          "internalType": "string",
          "name": "_indice",
          "type": "string"
        }
      ],
      "name": "reset",
      "outputs": [],
      "stateMutability": "nonpayable",
      "type": "function"
    }
  ],
  "bytecode": "0x608060405234801561001057600080fd5b5061002d61002261003260201b60201c565b61003a60201b60201c565b6100fe565b600033905090565b60008060009054906101000a900473ffffffffffffffffffffffffffffffffffffffff169050816000806101000a81548173ffffffffffffffffffffffffffffffffffffffff021916908373ffffffffffffffffffffffffffffffffffffffff1602179055508173ffffffffffffffffffffffffffffffffffffffff168173ffffffffffffffffffffffffffffffffffffffff167f8be0079c531659141344cd1fd0a4f28419497f9722a3daafe3b4186f6b6457e060405160405180910390a35050565b6113f78061010d6000396000f3fe608060405234801561001057600080fd5b506004361061009e5760003560e01c80638e7ea5b2116100665780638e7ea5b214610137578063ade1807014610155578063e23f0ede14610171578063f2fde38b1461018d578063f71d96cb146101a95761009e565b80631ecd2d9f146100a3578063427f822b146100d3578063556e6edc146100f1578063715018a61461010f5780638da5cb5b14610119575b600080fd5b6100bd60048036038101906100b89190610d56565b6101d9565b6040516100ca9190610dba565b60405180910390f35b6100db61048b565b6040516100e89190610e16565b60405180910390f35b6100f96104b1565b6040516101069190610eb9565b60405180910390f35b61011761053f565b005b6101216105c7565b60405161012e9190610e16565b60405180910390f35b61013f6105f0565b60405161014c9190610eb9565b60405180910390f35b61016f600480360381019061016a9190610edb565b6106c1565b005b61018b60048036038101906101869190610edb565b6108a9565b005b6101a760048036038101906101a29190610f7f565b610957565b005b6101c360048036038101906101be9190610fe2565b610a4e565b6040516101d09190610e16565b60405180910390f35b6000801515600460003373ffffffffffffffffffffffffffffffffffffffff1673ffffffffffffffffffffffffffffffffffffffff16815260200190815260200160002060009054906101000a900460ff1615151461026d576040517f08c379a00000000000000000000000000000000000000000000000000000000081526004016102649061105b565b60405180910390fd5b600160405160200161027f919061117a565b60405160208183030381529060405280519060200120826040516020016102a691906111c2565b60405160208183030381529060405280519060200120036103c65733600360006101000a81548173ffffffffffffffffffffffffffffffffffffffff021916908373ffffffffffffffffffffffffffffffffffffffff1602179055506001600460003373ffffffffffffffffffffffffffffffffffffffff1673ffffffffffffffffffffffffffffffffffffffff16815260200190815260200160002060006101000a81548160ff0219169083151502179055506005339080600181540180825580915050600190039060005260206000200160009091909190916101000a81548173ffffffffffffffffffffffffffffffffffffffff021916908373ffffffffffffffffffffffffffffffffffffffff16021790555060019050610486565b6001600460003373ffffffffffffffffffffffffffffffffffffffff1673ffffffffffffffffffffffffffffffffffffffff16815260200190815260200160002060006101000a81548160ff0219169083151502179055506005339080600181540180825580915050600190039060005260206000200160009091909190916101000a81548173ffffffffffffffffffffffffffffffffffffffff021916908373ffffffffffffffffffffffffffffffffffffffff160217905550600090505b919050565b600360009054906101000a900473ffffffffffffffffffffffffffffffffffffffff1681565b600280546104be906110aa565b80601f01602080910402602001604051908101604052809291908181526020018280546104ea906110aa565b80156105375780601f1061050c57610100808354040283529160200191610537565b820191906000526020600020905b81548152906001019060200180831161051a57829003601f168201915b505050505081565b610547610a8d565b73ffffffffffffffffffffffffffffffffffffffff166105656105c7565b73ffffffffffffffffffffffffffffffffffffffff16146105bb576040517f08c379a00000000000000000000000000000000000000000000000000000000081526004016105b290611225565b60405180910390fd5b6105c56000610a95565b565b60008060009054906101000a900473ffffffffffffffffffffffffffffffffffffffff16905090565b6060600073ffffffffffffffffffffffffffffffffffffffff16600360009054906101000a900473ffffffffffffffffffffffffffffffffffffffff1673ffffffffffffffffffffffffffffffffffffffff1603610685576040518060400160405280601681526020017f50617320656e636f7265206465206761676e616e74210000000000000000000081525090506106be565b6040518060400160405280601281526020017f496c2079206120756e206761676e616e7421000000000000000000000000000081525090505b90565b6106c9610a8d565b73ffffffffffffffffffffffffffffffffffffffff166106e76105c7565b73ffffffffffffffffffffffffffffffffffffffff161461073d576040517f08c379a000000000000000000000000000000000000000000000000000000000815260040161073490611225565b60405180910390fd5b600060058054905090506000808290505b60008111156108565760056001826107669190611274565b81548110610777576107766112a8565b5b9060005260206000200160009054906101000a900473ffffffffffffffffffffffffffffffffffffffff1691506000600460008473ffffffffffffffffffffffffffffffffffffffff1673ffffffffffffffffffffffffffffffffffffffff16815260200190815260200160002060006101000a81548160ff021916908315150217905550600580548061080e5761080d6112d7565b5b6001900381819060005260206000200160006101000a81549073ffffffffffffffffffffffffffffffffffffffff02191690559055808061084e90611306565b91505061074e565b506000600360006101000a81548173ffffffffffffffffffffffffffffffffffffffff021916908373ffffffffffffffffffffffffffffffffffffffff1602179055506108a384846108a9565b50505050565b6108b1610a8d565b73ffffffffffffffffffffffffffffffffffffffff166108cf6105c7565b73ffffffffffffffffffffffffffffffffffffffff1614610925576040517f08c379a000000000000000000000000000000000000000000000000000000000815260040161091c90611225565b60405180910390fd5b816001908051906020019061093b929190610b59565b508060029080519060200190610952929190610b59565b505050565b61095f610a8d565b73ffffffffffffffffffffffffffffffffffffffff1661097d6105c7565b73ffffffffffffffffffffffffffffffffffffffff16146109d3576040517f08c379a00000000000000000000000000000000000000000000000000000000081526004016109ca90611225565b60405180910390fd5b600073ffffffffffffffffffffffffffffffffffffffff168173ffffffffffffffffffffffffffffffffffffffff1603610a42576040517f08c379a0000000000000000000000000000000000000000000000000000000008152600401610a39906113a1565b60405180910390fd5b610a4b81610a95565b50565b60058181548110610a5e57600080fd5b906000526020600020016000915054906101000a900473ffffffffffffffffffffffffffffffffffffffff1681565b600033905090565b60008060009054906101000a900473ffffffffffffffffffffffffffffffffffffffff169050816000806101000a81548173ffffffffffffffffffffffffffffffffffffffff021916908373ffffffffffffffffffffffffffffffffffffffff1602179055508173ffffffffffffffffffffffffffffffffffffffff168173ffffffffffffffffffffffffffffffffffffffff167f8be0079c531659141344cd1fd0a4f28419497f9722a3daafe3b4186f6b6457e060405160405180910390a35050565b828054610b65906110aa565b90600052602060002090601f016020900481019282610b875760008555610bce565b82601f10610ba057805160ff1916838001178555610bce565b82800160010185558215610bce579182015b82811115610bcd578251825591602001919060010190610bb2565b5b509050610bdb9190610bdf565b5090565b5b80821115610bf8576000816000905550600101610be0565b5090565b6000604051905090565b600080fd5b600080fd5b600080fd5b600080fd5b6000601f19601f8301169050919050565b7f4e487b7100000000000000000000000000000000000000000000000000000000600052604160045260246000fd5b610c6382610c1a565b810181811067ffffffffffffffff82111715610c8257610c81610c2b565b5b80604052505050565b6000610c95610bfc565b9050610ca18282610c5a565b919050565b600067ffffffffffffffff821115610cc157610cc0610c2b565b5b610cca82610c1a565b9050602081019050919050565b82818337600083830152505050565b6000610cf9610cf484610ca6565b610c8b565b905082815260208101848484011115610d1557610d14610c15565b5b610d20848285610cd7565b509392505050565b600082601f830112610d3d57610d3c610c10565b5b8135610d4d848260208601610ce6565b91505092915050565b600060208284031215610d6c57610d6b610c06565b5b600082013567ffffffffffffffff811115610d8a57610d89610c0b565b5b610d9684828501610d28565b91505092915050565b60008115159050919050565b610db481610d9f565b82525050565b6000602082019050610dcf6000830184610dab565b92915050565b600073ffffffffffffffffffffffffffffffffffffffff82169050919050565b6000610e0082610dd5565b9050919050565b610e1081610df5565b82525050565b6000602082019050610e2b6000830184610e07565b92915050565b600081519050919050565b600082825260208201905092915050565b60005b83811015610e6b578082015181840152602081019050610e50565b83811115610e7a576000848401525b50505050565b6000610e8b82610e31565b610e958185610e3c565b9350610ea5818560208601610e4d565b610eae81610c1a565b840191505092915050565b60006020820190508181036000830152610ed38184610e80565b905092915050565b60008060408385031215610ef257610ef1610c06565b5b600083013567ffffffffffffffff811115610f1057610f0f610c0b565b5b610f1c85828601610d28565b925050602083013567ffffffffffffffff811115610f3d57610f3c610c0b565b5b610f4985828601610d28565b9150509250929050565b610f5c81610df5565b8114610f6757600080fd5b50565b600081359050610f7981610f53565b92915050565b600060208284031215610f9557610f94610c06565b5b6000610fa384828501610f6a565b91505092915050565b6000819050919050565b610fbf81610fac565b8114610fca57600080fd5b50565b600081359050610fdc81610fb6565b92915050565b600060208284031215610ff857610ff7610c06565b5b600061100684828501610fcd565b91505092915050565b7f766f7573206176657a2064c3a96a61206a6f75c3a90000000000000000000000600082015250565b6000611045601583610e3c565b91506110508261100f565b602082019050919050565b6000602082019050818103600083015261107481611038565b9050919050565b7f4e487b7100000000000000000000000000000000000000000000000000000000600052602260045260246000fd5b600060028204905060018216806110c257607f821691505b6020821081036110d5576110d461107b565b5b50919050565b600081905092915050565b60008190508160005260206000209050919050565b60008154611108816110aa565b61111281866110db565b9450600182166000811461112d576001811461113e57611171565b60ff19831686528186019350611171565b611147856110e6565b60005b838110156111695781548189015260018201915060208101905061114a565b838801955050505b50505092915050565b600061118682846110fb565b915081905092915050565b600061119c82610e31565b6111a681856110db565b93506111b6818560208601610e4d565b80840191505092915050565b60006111ce8284611191565b915081905092915050565b7f4f776e61626c653a2063616c6c6572206973206e6f7420746865206f776e6572600082015250565b600061120f602083610e3c565b915061121a826111d9565b602082019050919050565b6000602082019050818103600083015261123e81611202565b9050919050565b7f4e487b7100000000000000000000000000000000000000000000000000000000600052601160045260246000fd5b600061127f82610fac565b915061128a83610fac565b92508282101561129d5761129c611245565b5b828203905092915050565b7f4e487b7100000000000000000000000000000000000000000000000000000000600052603260045260246000fd5b7f4e487b7100000000000000000000000000000000000000000000000000000000600052603160045260246000fd5b600061131182610fac565b91506000820361132457611323611245565b5b600182039050919050565b7f4f776e61626c653a206e6577206f776e657220697320746865207a65726f206160008201527f6464726573730000000000000000000000000000000000000000000000000000602082015250565b600061138b602683610e3c565b91506113968261132f565b604082019050919050565b600060208201905081810360008301526113ba8161137e565b905091905056fea2646970667358221220a4bd29d8678684678dccfaa08f5465a7ddfb9d2fc8a576e0a77807559f87674d64736f6c634300080d0033",
  "immutableReferences": {},
  "source": "// SPDX-License-Identifier: GPL-3.0\r\n\r\npragma solidity 0.8.13;\r\n\r\nimport \"../node_modules/@openzeppelin/contracts/access/Ownable.sol\";\r\n\r\ncontract Devinez is Ownable {\r\n    \r\n    string private mot;\r\n    string public indice;\r\n    address public gagnant;\r\n    mapping(address=>bool) played;\r\n\r\n    address[] public players;\r\n\r\n    function setMot(string memory _mot, string memory _indice)  public onlyOwner{\r\n        mot=_mot;\r\n        indice=_indice;\r\n    }\r\n\r\n    function getWinner() view public returns (string memory){\r\n        if(gagnant==address(0)){\r\n            return \"Pas encore de gagnant!\";\r\n        }\r\n        else {\r\n            return \"Il y a un gagnant!\";\r\n        }\r\n    }\r\n\r\n    function playWord(string memory _try) public returns (bool) {\r\n        require (played[msg.sender]==false, unicode\"vous avez dja jou\");\r\n        if (\r\n            keccak256(abi.encodePacked(_try)) == keccak256(abi.encodePacked(mot))\r\n        ){\r\n            gagnant=msg.sender;\r\n            played[msg.sender]=true;\r\n            players.push(msg.sender);\r\n            return true;\r\n        }\r\n        else {\r\n            played[msg.sender]=true;\r\n            players.push(msg.sender);\r\n            return false;\r\n        }\r\n    }\r\n\r\n    function reset(string memory _mot, string memory _indice) public onlyOwner{\r\n        uint tailleTableau=players.length;\r\n        address  tempPlayers;\r\n        for (uint i=tailleTableau; i>0; i--){\r\n            tempPlayers=players[i-1];\r\n            played[tempPlayers]=false;\r\n            players.pop();\r\n        }\r\n        gagnant = address(0);\r\n        setMot(_mot, _indice);\r\n    }\r\n}",
  "sourcePath": "/home/tomawok-work/prog/alyra/Developpeur-Ethereum-Template/6. Dapp/Devinez/contracts/devinez.sol",
  "compiler": {
    "name": "solc",
    "version": "0.8.13+commit.abaa5c0e.Emscripten.clang"
  },
  "schemaVersion": "3.4.6",
  "updatedAt": "2022-04-20T14:52:43.516Z",
  "networkType": "ethereum",
  "devdoc": {
    "kind": "dev",
    "methods": {
      "owner()": {
        "details": "Returns the address of the current owner."
      },
      "renounceOwnership()": {
        "details": "Leaves the contract without owner. It will not be possible to call `onlyOwner` functions anymore. Can only be called by the current owner. NOTE: Renouncing ownership will leave the contract without an owner, thereby removing any functionality that is only available to the owner."
      },
      "transferOwnership(address)": {
        "details": "Transfers ownership of the contract to a new account (`newOwner`). Can only be called by the current owner."
      }
    },
    "version": 1
  },
  "userdoc": {
    "kind": "user",
    "methods": {},
    "version": 1
  }
}